:020000040800F2
:1000000070080020C1010008EB190008EF18000873
:10001000E919000839040008491D00080000000023
:10002000000000000000000000000000711A00083D
:100030003B04000800000000ED190008731A0008D6
:10004000DB010008DB010008DB010008DB01000820
:10005000DB010008DB010008DB010008DB01000810
:10006000DB010008DB010008DB010008DB01000800
:10007000DB010008DB010008DB010008DB010008F0
:10008000DB010008DB010008DB010008DB010008E0
:10009000DB010008DB010008DB010008DB010008D0
:1000A00000000000DB010008DB010008DB010008A4
:1000B000DB010008DB010008DB010008DB010008B0
:1000C000DB010008DB010008DB010008DB010008A0
:1000D000DB010008DB010008311D00083D1D0008A0
:1000E000DB010008DB010008DB010008DB01000880
:1000F000DB01000800000000DB010008DB01000854
:100100000000000000000000DB010008DB01000827
:10011000DB010008DB010008DB0100080000000033
:10012000DB01000800F002F800F03AF80AA090E8BD
:10013000000C82448344AAF10107DA4501D100F0A2
:100140002FF8AFF2090EBAE80F0013F0010F18BF35
:10015000FB1A43F001031847D0290000F0290000E2
:10016000103A24BF78C878C1FAD8520724BF30C8E3
:1001700030C144BF04680C607047000000230024B5
:1001800000250026103A28BF78C1FBD8520728BFA7
:1001900030C148BF0B6070471FB51FBD10B510BD03
:1001A00000F0D5F81146FFF7F7FF01F0DFFD00F092
:1001B000F3F803B4FFF7F2FF03BC00F0F7F8000018
:1001C0000948804709480047FEE7FEE7FEE7FEE7EB
:1001D000FEE7FEE7FEE7FEE7FEE7FEE70448054927
:1001E000054A064B70470000E51A00082501000883
:1001F00070020020700800207004002070040020AD
:1002000053EA020C00F069802DE9F04B4FF0000634
:10021000002B1FBFB3FA83F503FA05F424FA05F6A1
:100220005E4012BF1643B2FA82F502FA05F4C5F138
:1002300020051EBF22FA05FC44EA0C04203556EACC
:10024000044C4FEA144418BF641C4FF000084FF0F0
:100250000009904271EB030C39D3002919BFB1FAA0
:1002600081F701FA07F6B0FA80F700FA07F6C7F14E
:1002700020071EBF20FA07FC46EA0C062037B6FB13
:10028000F4FCA7EB0507103F07F01F0BCBF120068E
:100290000CFA0BFB2CFA06F644BFB3460026202FBF
:1002A000A4BF5E464FF0000B5BEA060C08BF4FF0A0
:1002B000010B19EB0B09ABFB027C48EB0608C01BDA
:1002C00006FB02CC0BFB03CC71EB0C01C1E70B4628
:1002D000024641464846BDE8F08B13B54FF000009A
:1002E0004FF00001AFF30080BDE81C4070474FF0B5
:1002F000000200B5134694469646203922BFA0E876
:100300000C50A0E80C50B1F12001BFF4F7AF090781
:1003100028BFA0E80C5048BF0CC05DF804EB890072
:1003200028BF40F8042B08BF704748BF20F8022BB5
:1003300011F0804F18BF00F8012B704770477047CD
:1003400070470000004870470C0200207047754657
:10035000FFF7F8FFAE4605006946534620F0070058
:10036000854618B020B5FFF739FFBDE820404FF0B3
:1003700000064FF000074FF000084FF0000B21F08F
:100380000701AC46ACE8C009ACE8C009ACE8C0095C
:10039000ACE8C0098D46704710B50446AFF3008045
:1003A0002046BDE81040FFF704BF000001491820B7
:1003B000ABBEFEE726000200F8B500260446009614
:1003C00000680168C94349062FD5816841F00101E1
:1003D0008160174817490068B0FBF1F000EB40005E
:1003E00000E0401E00900028FBD100F0C5FB054650
:1003F00016E000BF00F0C0FB401B022810D92068A7
:100400000068C04340060BD5E06C40F01000E0648B
:10041000206D40F00100206584F848600120F8BD9F
:1004200020680068C0434006E4D40020F8BD000006
:100430003800002040420F00FEE77047F8B5002466
:10044000009490F848202546012A12D0012280F815
:1004500048204A681F23072A0DD20668376C521EAF
:1004600002EB820293409F430B6893401F43376423
:1004700035E00220F8BD0D2A0BD20768FE6BD21FB3
:1004800002EB820293409E430B6893401E43FE633F
:1004900025E0132A0BD20668B76B0D3A02EB8202F5
:1004A00093409F430B6893401F43B76317E0066870
:1004B000192A0AD2776B133A02EB820293409F43C8
:1004C0000B6893401F43776309E0376B193A02EBDF
:1004D000820293409F430B6893401F4337630A682F
:1004E00007230A2A0AD20668776902EB4202934080
:1004F0009F438B6893401F4377611CE0142A0BD203
:1005000007683E690A3A02EB420293409E438B68B9
:1005100093401E433E610EE01A2A0BD80768FE681E
:10052000143A02EB420293409E438B6893401E4371
:10053000FE6000E000BF0A68102A01D0112A17D11E
:100540000D4A13681B0213D4136843F400031360AD
:10055000096810290CD10949094A0968B1FBF2F16F
:1005600001EB8101490000E0491E00910029FBD107
:1005700080F848502046F8BD04270140380000208C
:1005800040420F000068806D70470000F8B504001D
:100590004FF0000503D0E06C002610B110E0012000
:1005A000F8BD26655C4884F84860016841F00101A7
:1005B0000160006800F001000090204600F0B6F8ED
:1005C000E06CC0067AD4E06C20F4885040F0020061
:1005D000E06452480168626821F4403111430160CF
:1005E0006169E0684FF40073084394F83C2093FA83
:1005F000A3F3B3FA83F3216A9A401143084302211B
:1006000094F8242091FAA1F1B1FA81F102FA01F1F2
:100610000843616B102902D0A36B19430843236878
:1006200019684FF48077C943490629D5A169D4F8E0
:100630001CC00843A168D4F810E041EA0C01BE4593
:100640000CD0BEF1010F09D04FF0000C41EA0C01B3
:1006500094F82CC0BCF1010F02D00AE0BC46F5E7CB
:100660006AB3E26C42F02002E264226D42F00102C1
:1006700022655A68DFF8A8C002EA0C020A435A60F1
:1006800021688A68274B1A4002438A602169B9426F
:1006900024D0012922D021680A6B22F0F8720A6363
:1006A00021688968204A1140814227D12665E06C83
:1006B00020F0020040F00100E0642AE028E0FFE7BB
:1006C0004FF4604C226B9CFAACFCBCFA8CFC521EC2
:1006D00002FA0CF20A4342F40061CAE721680A6B8D
:1006E0004FF0F87722F0F873A26A97FAA7F7B7FAF3
:1006F00087F7521EBA4013430B63D1E7E06C20F03A
:10070000020040F01000E064206D40F00100206520
:1007100001252846F8BD000020380240042701408A
:10072000FF16FCFC89F1FFC0FEFF80BF08B5006822
:100730000649884208D10648016841F40071016009
:10074000006800F40070009008BD00000024014023
:10075000203802402DE9F041044600680D468168CA
:100760004FF0000749050BD58068C00508D5E06C3F
:1007700040F02000E06484F848700120BDE8F0817A
:1007800000F0FAF9064613E0681C11D025B100F01C
:10079000F3F9801BA8420BD920680068800707D4B2
:1007A000E06C40F00400E06484F848700320E5E762
:1007B000206800688007E7D5A06918B921686FF044
:1007C00012000860E06C40F40070E064206881680A
:1007D00011F0405F14D194F8241089B9016B11F025
:1007E000F87F02D0806840050AD4E06C20F4807065
:1007F000E064E06CC00403D4E06C40F00100E0640D
:100800000020BBE710B5044690F84800012822D02C
:10081000012084F848002046FFF7CEFD00281BD1B8
:10082000E16C40F20162914341F48071E16421681E
:100830004A68520505D5E26C22F4005242F4805217
:10084000E264E26CD3044FF0000206D5236D23F07E
:100850000603236502E0022010BD226584F84820CB
:100860006FF022020A6021688A6812F0405FF3D1BB
:100870008A6842F080428A6010BD10B590F821105D
:100880000022022905D00421816380F82020012064
:1008900010BD01680B6823F00E030B6001680B6844
:1008A00023F001030B6090F84010C46B01F01C03AF
:1008B000012101FA03F3636080F8211080F8202001
:1008C000104610BD10B590F821100024022903D065
:1008D0000421816301241AE001680A6822F00E02F3
:1008E0000A6001680A6822F001020A6090F840106C
:1008F000C36B01F01C02012101FA02F25A6080F878
:100900002110002180F82010416B01B1884720465A
:1009100010BD000070B5044600F02EF90546601CBD
:1009200002D004484068044400F026F9401BA0426D
:10093000FAD370BD2C0000202DE9F04FDFF80C92A7
:10094000002209F1040A012503240AF1040B85B0F1
:100950000F260BF1040EF0E005FA02F71CEA07037C
:100960007ED091F804C00CF0030CBCF1010F02D052
:10097000BCF1020F26D1D0F808C0CDF800C04FEA74
:10098000420C04FA0CF8CDF810C0DDF800C02CEAD7
:10099000080CCDF800C0D1F80C80DDF810C008FAC2
:1009A0000CF8DDF800C048EA0C08C0F80880D0F860
:1009B00004C02CEA070C0F79C7F30017974047EAE9
:1009C0000C0747600F79FF43BF070ED0C7684FEA97
:1009D000420804FA08FC27EA0C07D1F808C00CFA10
:1009E00008FC4CEA070CC0F80CC00F7907F00307AD
:1009F000022F15D1D70800EB870702973F6A4FEA0D
:100A0000427C4FEADC6806FA08FC27EA0C07D1F8BA
:100A100010C00CFA08FC4CEA070C029FC7F820C073
:100A200007684FEA420804FA08FC27EA0C0791F825
:100A300004C00CF0030C0CFA08FC4CEA070CC0F8DC
:100A400000C04F6817F4403F76D0414FD7F800C040
:100A50004CF0010CC7F800C03F6807F0010700E048
:100A60006AE000973B4F22F0030C67440297BF688F
:100A70004FEA827C4FEA1C7806FA08FC27EA0C074A
:100A8000DFF8D4C0604502D14FF0000C1DE0DFF864
:100A9000CCC0604502D14FF0010C16E0DFF8C0C0B9
:100AA000604502D14FF0020C0FE0DFF8B8C060459E
:100AB00002D14FF0030C08E0DFF8ACC0604502D172
:100AC0004FF0040C01E04FF0050C0CFA08FC4CEA66
:100AD000070C029FC7F808C0D9F80070CC46D1F8BF
:100AE00004809F435FEAC83800D51F43CCF80070EC
:100AF000DAF80070D446D1F804809F435FEA883862
:100B000000D51F43CCF80070DBF80070DC46D1F84C
:100B100004809F435FEAC82800D51F43CCF80070CB
:100B2000DEF80070F446D1F804809F435FEA88281D
:100B300000D51F43CCF80070521C0B689C46D34074
:100B40007FF40AAF05B0BDE8F08F0000000401405B
:100B50002038024000000140000002400004024032
:100B600000080240000C0240001002400AB18161FE
:100B700070470904FBE700000148806870470000E7
:100B80002C00002070B5040025D094F83D0000250D
:100B900020B984F83C50204600F0B8F8242084F8AE
:100BA0003D002068016821F00101016020680168B2
:100BB00041F4004101602068016821F400410160B6
:100BC00000F044FA4D4A6168914201D84C4900E076
:100BD0004C49884201D2012070BD4B492368B0FBCB
:100BE000F1F15E6826F03F060E435E606368934253
:100BF00006D94FF4967359434FF47A73B1FBF3F16E
:100C00002368491C1E6A26F03F0631431962616859
:100C1000914210D84900401EB0FBF1F2521CC2F3C1
:100C20000B02042A01D2042022E0B0FBF1F0401CA8
:100C3000C0F30B001CE0A268F2B301EBC10303EBAD
:100C40000116431EB3FBF6F35B1C43F480431B0504
:100C500049D092B301EBC10202EB0111401EB0FB7F
:100C6000F1F0401CC0F30B0040F4804040F4004021
:100C70002168CA694CF6FF739A431043C861D4E9EE
:100C8000071001432068026822F0C002114301608E
:100C9000D4E9030101432068826848F2FF339A4394
:100CA00011438160D4E9050108432168CA6822F034
:100CB000FF021043C86001E00EE016E02068016802
:100CC00041F0010101602564202084F83D00256386
:100CD00084F83E50002070BD01EB4106431EB3FB7B
:100CE000F6F35B1CB3E70120C2E701EB4101401EB4
:100CF000B0FBF1F0401CC0F30B00B7E7A086010089
:100D000080841E0000093D0040420F0010B586B0EF
:100D1000044614216846FFF7EAFA1449206888421D
:100D200021D11348016841F0020101600068694661
:100D300000F0020005904FF44060009012200190F6
:100D40000020029003200390042004900948FFF73C
:100D5000F3FD07480830016841F480010160006834
:100D600000F48000059006B010BD0000005800405F
:100D70001C38024000040240024881684268114465
:100D8000816070472C00002010B50024032000F083
:100D900079F80F2000F008F808B1012401E000F014
:100DA00025F8204610BD000070B50E4E0546002403
:100DB000706898B14FF47A71B1FBF0F00A49096894
:100DC000B1FBF0F000F0ABFB40B9102D06D20022D1
:100DD0002946501E00F036F8356000E00124204618
:100DE00070BD00002C000020380000200D4808B520
:100DF000016841F000410160016801F0004100918B
:100E0000011F0A6842F001020A60096801F001014D
:100E10000091016841F080510160006800F080504D
:100E2000009008BD24380240002809DB00F01F02B2
:100E3000012191404009800000F1E020C0F800113C
:100E400070470000F0B40E4B1B680C46C3F302233E
:100E5000C3F10705042D00D90425191D072901D266
:100E6000002300E0DB1E012606FA05F1491E2140A1
:100E700099409E40761E16403143F0BC00F065BF9D
:100E80000CED00E0064900F0070208684FF6FF038A
:100E9000184040EA0220034A1043086070470000EF
:100EA0000CED00E00000FA052DE9F0470E460500C4
:100EB00079D0DFF88481D8F8000000F00100B0425A
:100EC00014D2012E05D1D8F8001041F00401C8F861
:100ED0000010D8F8001021F001013143C8F80010CB
:100EE000D8F8000000F00100B0425CD12878534CE3
:100EF000800705D52068A96820F0F000084320602D
:100F00002878C0075CD04D496868083902281AD093
:100F100003281BD0096801281BD08905002966DA3F
:100F2000216821F0030101432160FFF725FE696874
:100F3000074641F28830022914D0032920D0012924
:100F400081462AD038E009688903E7E70968890102
:100F5000E4E78907E2E700BFFFF70EFEC11B494542
:100F600001D926E081462068C0F381000228F3D130
:100F700026E000BFFFF700FEC11B494501D918E07C
:100F800081462068C0F381000328F3D118E000BF38
:100F9000FFF7F2FDC11B49450BD82068C0F3810063
:100FA0000128F5D10CE022E0FFF7E6FDC11B494521
:100FB00002D90320BDE8F087206810F00C0FF3D1B0
:100FC000D8F80010404601F00101B14211D9012EBC
:100FD00003D1016841F004010160016821F00101C1
:100FE00031430160006800F00100B04201D00120EF
:100FF000E0E72878400705D52068E96820F4E0603C
:10100000084320602878000706D52068296920F465
:10101000605040EAC100206000F038F82168084ABA
:10102000C1F30311515CC8400649086006480068D6
:10103000BDE8F047FFF7B8BE003C02400838024068
:101040000F2B0008380000202C0000200448054920
:1010500000680968044AC1F30221515CC840704726
:1010600038000020083802401F2B000804480549BA
:1010700000680968044AC1F3C221515CC840704746
:1010800038000020083802401F2B000870B5154DAD
:101090002968154801F00C02042A0CD0134C082AC8
:1010A0000AD00C2A0AD0281F0068C0F342314FF43E
:1010B0000040491C884070BD204670BD0C4AC1F3F9
:1010C0008343D35CC1F381522968521CC90302D502
:1010D000A3FB040101E0A3FB00010023FFF790F84C
:1010E00070BD0000083802400024F40000366E0194
:1010F000062B00082DE9F84F04007DD0FC4801685C
:10110000006801F00C0700F480362078F94DC00724
:1011100041D0082F12D00C2F02D1B6F5803F0DD050
:101120006068012811D008B1052818D0286820F47B
:1011300080302860286820F4802009E02868800337
:1011400029D560680028D8D025E0286840F4803090
:101150002860606890B1FFF70FFD80460AE02868BC
:1011600040F480202860F0E7FFF706FDA0EB0800C0
:1011700064287BD828688003F6D50CE0FFF7FCFCD8
:10118000804605E0FFF7F8FCA0EB08006428F0D8E3
:1011900028688003F6D42078DFF85CB3DFF85C833E
:1011A00080074FF001094FF0000A35D5042F0AD00F
:1011B0000C2F00D13EB1E068F8B1C8F80090FFF7FD
:1011C000DBFC06460BE0286880070BD5E0680128A9
:1011D00012D107E0FFF7D0FC801B0228C9D828688D
:1011E0008007F7D5DBF80010226921F4F85141EAB5
:1011F0000221CBF800100FE077E1C8F800A0FFF75C
:10120000BBFC064605E000BFFFF7B6FC801B0228CA
:10121000AFD828688007F7D42078C00674D53FB1CE
:10122000A069E0B3C8F82090FFF7A6FC06464AE0A4
:101230002868800502D5A069002884D0206ADBF8E0
:1012400000105E4601F46041884210D900F0D0FBE6
:101250000028BDD13068216A20F460400843306026
:10126000217F306861F31F6030600FE096E03168E5
:1012700021F4604101433160217F306861F31F60D8
:101280003060206A00F0B4FB0028A1D1216A4FF43D
:10129000004009EB513188409549096800E025E09C
:1012A000974AC1F30311515CC840964908609648BB
:1012B0000068FFF779FD00286FD125E0FFF75CFC9F
:1012C000801B02286AD828688005F7D5DBF8001053
:1012D000226A21F460411143CBF80010227FDBF831
:1012E000001062F31F61CBF800100DE0C8F820A0D9
:1012F000FFF742FC064604E0FFF73EFC801B022895
:101300004CD828688005F7D42078804E000722D575
:101310007F48616981B1C0F80090FFF72DFC8346DA
:1013200006E000BFFFF728FCA0EB0B00022835D831
:1013300030688007F6D50EE0C0F800A0FFF71CFC6F
:10134000834605E0FFF718FCA0EB0B00022825D828
:1013500030688007F6D4207840076DD56B484FF091
:10136000000B10380068C0000BD4684810380168C2
:1013700041F08051016000684FF0010B00F0805097
:10138000009064480168C90514D4016841F4807173
:101390000160FFF7F1FB009008E08DE079E000BF0D
:1013A000FFF7EAFB0099401A642872D85948006890
:1013B000C005F5D5A06801280AD008B1052811D0CC
:1013C000306820F480703060306820F4806002E083
:1013D000306840F480703060A068A8B1FFF7CCFBA3
:1013E00000900DE0306840F480603060F0E700BFAE
:1013F000FFF7C2FB0099411A41F2883081425AD866
:1014000030688005F4D50EE0FFF7B6FB009007E0EA
:10141000FFF7B2FB0099411A41F2883081424AD865
:1014200030688005F4D4BBF1000F05D03748103880
:10143000016821F080510160606A58B30C2F41D0DF
:101440000228504605D0C8F86000FFF795FB044617
:1014500034E04746C8F86000FFF78EFB064604E01C
:10146000FFF78AFB801B022825D828688001F7D463
:10147000D4E90A1001431E48226B036823F47D035C
:101480001A4311430160C7F86090FFF775FB0446EB
:1014900007E010E040E000BFFFF76EFB001B0228F2
:1014A00009D828688001F7D536E000BFFFF764FB54
:1014B000001B022802D90320BDE8F88F28688001AC
:1014C000F4D429E00128F7D009480068A26A00F4A2
:1014D0008031914209D1E26A00F47011914204D145
:1014E000216B00F44000884216D00120E4E70000A0
:1014F00008380240003802400438024000004742E9
:101500000F2B0008380000202C0000203438024047
:1015100080064742007000400020CDE7704710B5BC
:10152000401EB0F1807F01D3012010BD4FF0E024B8
:1015300060610F21601700F008FC0020A061072007
:101540002061002010BD10B5FFF7E8FF10BD704707
:1015500070470000F8B5026804461068D168536906
:1015600010F00F0F4FF0000553D003F0010601F407
:10157000907737435FD0C20705D0CA0503D5226CE8
:1015800042F001022264420705D5DA0703D0226C3B
:1015900042F002022264820705D5DA0703D0226CEA
:1015A00042F004022264020707D501F02002324310
:1015B00003D0226C42F008022264226C002A34D04C
:1015C000800604D5880602D5204600F0ACFA2068D3
:1015D0004069216CC0F38010090700D430B3204665
:1015E00000F089FA2068416949061BD5416921F05C
:1015F00040014161A06BA8B158494163A06BFFF75E
:1016000061F9002811D0A06B416B01B0BDE8F0403A
:10161000084783060FD58B060DD52046BDE8F84058
:1016200000F081BA2046FFF793FFF8BD2046FFF790
:101630008FFF2564F8BD266B2023012E52D1C606EC
:1016400050D5CE064ED510685068009050694006BF
:101650002AD5A16B086840680004000CEAD0A68D6A
:101660008642E7D9E0858869202818D0D06820F420
:101670008070D0602068416921F0010141612068DB
:10168000416921F04001416184F83E3025632068C2
:10169000C16821F01001C160A06BFFF7EEF8A08DCA
:1016A000E18D401A81B219E0A08DE18D401A81B21E
:1016B000E08D0028BED00029BCD0D06820F4907006
:1016C000D0602068426922F00102426184F83E3015
:1016D00025632068C26822F01002C2602046FFF72E
:1016E00036FFF8BD05062BD50D0629D594F83D002B
:1016F0002128F6D1A068B0F5805F01D12069B0B192
:10170000206A411C2162216800784860E08C401EFC
:101710000004000CE084E4D12068C16821F080015D
:10172000C1602068C16841F04001C160F8BD206A15
:101730000088C0F308005060206A801C2062E5E742
:101740004006F3D54806F1D5D168204621F0400186
:10175000D16084F83D3000F0C9F8F8BDE71A000800
:1017600070B5040004D094F83D00002510B106E0E7
:10177000012070BD84F83C50204600F023F824205E
:1017800084F83D002068C16821F40051C160204602
:1017900000F024FA2068016921F490410161206879
:1017A000416921F02A0141612068C16841F400517A
:1017B000C1602564202084F83D0084F83E000020AC
:1017C00070BD000070B586B0044614216846FEF76F
:1017D0008EFD2B48294E256829490838022203230B
:1017E0000724B54221D10D6845F400350D60096824
:1017F00001F400310591016841F0010101600068C8
:1018000002AD00F0010005900C20CDE9000201209E
:1018100085E8190069461B48FFF78EF8002211463B
:101820002620FFF70FFB262024E0174EB54223D1D8
:101830000D6845F480250D60096801F4802105914B
:10184000016841F004010160006802AD00F004008D
:1018500005904FF44060CDE90002002085E81900B2
:1018600069460A48FFF768F8002211462720FFF76B
:10187000E9FA2720FFF7D8FA06B070BD004400400F
:1018800024380240000002400048004000080240A6
:1018900090F83E30202B0ED159B152B190F83C3027
:1018A000012B08D0012380F83C300023036300F0B3
:1018B00023BA012070470220704700000A490068DF
:1018C000096888420ED1084907488831903011F8DC
:1018D000042F4B881A544888401C48800122024833
:1018E000FFF7D6BF70470000340100207047FEE7C5
:1018F0003EB50021164800910191144A0291C0E9B9
:1019000000218160C160016141618161C161012487
:10191000016280F82440846280F82C101025C0E910
:101920000D5180F83C10FEF731FE08B172B6FEE7AB
:1019300006200095CDE9014069460548FEF77EFD89
:10194000002801D072B6FEE73EBD00000024014031
:101950008C0000202DE9F04186B014216846FEF786
:10196000C6FC1E48016841F001010160016801F0F8
:1019700001010591016841F002010160016801F077
:1019800002010591016841F0040101600068144FF3
:1019900000F004000590002202213846FFF7E6F827
:1019A000DFF84080BE14002231464046FFF7DEF8E3
:1019B0000220009001250024CDE9015469463846F3
:1019C0000394FEF7B9FF0096CDE9015469464046FD
:1019D0000394FEF7B1FF06B0BDE8F0811C38024069
:1019E0000000024000040240FEE7FEE770470000EE
:1019F00038B51C49002309681B4A11F0F00F23D1A8
:101A000018491C310C68E500184C03D5216801F415
:101A1000C0540EE00D6845F080550D600D6805F06E
:101A20008055009524680D6804F4C05425F0805555
:101A30000D60B4F5C05F07D1B0F5404F04D1106818
:101A4000012340F004001060106820F001001843EA
:101A50001060106800F00100984201D0012038BDEC
:101A6000002038BD08380240003C024000700040B1
:101A7000704710B5FFF780F9BDE81040FFF763BD70
:101A800030B593B034216846FEF731FC14210DA81F
:101A9000FEF72DFC1248016821F4C05141F40061A9
:101AA0000160022000900024012510200994CDE956
:101AB00003506846FFF71EFB08B172B6FEE70F2021
:101AC000CDE90E540D90109400210DA81194FFF74C
:101AD000EBF9002801D072B6FEE713B030BD00006C
:101AE00000700040704710B5406A0021C185C18474
:101AF000FFF72EFD10BD0168CA6822F49072CA601B
:101B000001684A6922F001024A61016B012904D18E
:101B10000168CA6822F01002CA60202180F83E10D5
:101B200000210163704708B590F83E10222901D0CA
:101B3000022008BD82684FF480539A4201D10169A6
:101B400021B1816A9A421BD04AB10AE00268816AD7
:101B50005268C2F308020A80816A891C08E002699F
:101B600072B10268526802F07F020A70816A491CF1
:101B70008162C18D491E0904090CC18503D019E099
:101B800002685268F1E70168CA6822F02002CA6060
:101B90000168CA6822F48072CA6001684A6922F04A
:101BA00001024A61202180F83E10016B012903D017
:101BB000FFF784FE002008BD002101630168CA68A8
:101BC00022F01002CA6001680A68D20602D50A68CB
:101BD00049680091818DFFF7BAFCEBE72DE9F041F0
:101BE000044600680169E26821F440511143016133
:101BF0002169A068E26908436169114322680843CA
:101C0000D16849F20C6399430143D160206841696E
:101C1000A26921F44071114341613649206888422C
:101C200002D1FFF723FA01E0FFF710FA0246E36959
:101C300064203221B3F5004F02EBC20303EB021321
:101C400062682BD09200B3FBF2F5B5FBF0F5B3FB65
:101C5000F2F66FF018077D4306EB8505B3FBF2F64D
:101C600001EB0515B5FBF0F5B6FBF0F605F0F00558
:101C700005EB0615B3FBF2F6B3FBF2F2B2FBF0F2A2
:101C80007A4306EB820201EB0211B1FBF0F000F0A7
:101C90000F00216828448860BDE8F0815200B3FB42
:101CA000F2F6B6FBF0F6B3FBF2F7B3FBF2F56FF02A
:101CB000180C06FB0CF607EB860601EBC606B5FB17
:101CC000F0F5B6FBF0F62D0106F0F80605EB46053B
:101CD000B3FBF2F6B3FBF2F2B2FBF0F202FB0CF252
:101CE00006EB820201EBC201B1FBF0F000F007004D
:101CF000CFE700000038014081628285C285002163
:101D00000164222280F83E2080F83C100168CA68F5
:101D100042F48072CA6001684A6942F001024A6175
:101D20000068C16841F02001C160002070470000D8
:101D30000148FFF70FBC0000340100200148FFF705
:101D400009BC000078010020FEE70907090E002801
:101D500004DB00F1E02080F80014704700F00F0071
:101D600000F1E02080F8141D70470000484D05F197
:101D700088063560FFF708F8FFF782FEFFF7EAFDF7
:101D8000A5F154004349016043490024C0E901140E
:101D90004FF48041C0E9034144618461C46104623D
:101DA000FEF7F0FE08B172B6FEE739483B49443011
:101DB0004FF4E1370160C0E901744FF00C08C460D2
:101DC000C0E904488461C461FFF7CAFC08B172B677
:101DD000FEE733482860C5E90174EC60C5E90448B2
:101DE000AC612B48EC61FFF7BBFC08B172B6FEE7B3
:101DF000FFF77EFD2648A838FEF704FD0122311DBD
:101E00003068FFF745FD00224FF480512548FEF76A
:101E1000ADFEDFF89480DFF89490DFF894A0DFF84F
:101E200094B0254C4FF47A764FF066370020054683
:101E3000606217483146A838FEF78CFC1448A83871
:101E4000FEF7A0FB80B2E08100F070FA3A4643460C
:101E500000F080FA4A46534600F07AFB5A46174B88
:101E600000F00CF90022164B00F060F800F02CF89E
:101E7000616A00F063FC60621420FEF74BFD6D1C8C
:101E8000052DD6DB0F49606A00F0BAFCA062CDE7F1
:101E90003401002000580040A086010000480040A6
:101EA000004400400004024066664A3FE63FA4DF6B
:101EB000BE0EE43FFF092E5600000020D4605A3FBA
:101EC000000039400000A04021F00042A2F1605221
:101ED000B2F5801F01F0004328BFD2F17F6C0BD90F
:101EE0005FEA001C43EAC20242EB507018BF704721
:101EF00028BF20F001007047B2F5801FBCBF184614
:101F000070474FEA410C1CF5001F02D2084600F052
:101F10007FBD70B500F0C8FA00000089FFF7F6BF7A
:101F20004FF00040A0F580007047000010B591EA26
:101F3000030F48BF83F0004300F11E83841A71EB46
:101F4000030C05D2121943EB0C03001B61EB0C01CF
:101F5000DFF824E14FEA1154A4EB135C1EEA430FAF
:101F600018BF9EEA445F73D023EA0E03DCF1200E13
:101F700021EA045143F4801332D322FA0CFE10EB11
:101F80000E0023FA0CFE41EB0E01CCF1200E03FAF9
:101F90000EFE10EB0E0051F10001B1F5801FCCF1E7
:101FA000200E32D201EB045112FA0EF2BDE81040BD
:101FB00058BF7047401C38BF5FEA420218BF7047E5
:101FC000002814BF20F0010041F100014FEA410355
:101FD00013F5001F38BF7047A1F1C04100F0B2BA3D
:101FE000012A43EB0302ACF1200CDCF11F0E32BFDF
:101FF0004FF0000E23FA0CF310EB030041EB0451F9
:10200000B4EB115FD0D0A1EB045101F58011490868
:102010005FEA300001EB04510ED350F1000038BFED
:1020200012FA0EFE08D1BDE81040C9E7401C38BFC7
:102030005FEA4202CAD1C3E7BDE810404FEA41035C
:1020400013F5001F38BF7047A1F1C04100F07ABA04
:102050009EEA445F08D011EA5E0FBDE8104004BF5D
:1020600001F0004100207047BDE8104070B500F05D
:102070001BFA00BF64FBBE3E0000E0FF2DE9C0413B
:1020800030B4DFF8A0C23CEA111418BF3CEA1314C4
:1020900000F0EC8081EA03051CEA111444EAD574CF
:1020A00018BF1CEA131500F0C780A4EB05044FF01D
:1020B000004545EAC12145EAC32341EA505143EABC
:1020C000525304F17F74994204F500344FEAC02062
:1020D0004FEAC22208BF904200F09C804FEA13658D
:1020E0000FF24016765D4FEA134506FB05F7C7F180
:1020F000807706FB07F74FEAD737A7FB03687642DE
:10210000C8F58038A7FB06CE38BFA8F1010807FB49
:1021100008E64FF0000EA6FB028CE6FB03CEDCF1D6
:10212000000CCEF1004E38BFAEF1010EA6FB0C58EC
:102130004FF000074FF00005E6FB0E87A1FB08C635
:10214000A0FB07CE16EB0E0645F10005E1FB076587
:1021500015F1E04E7EBFA4F580345FEA46066D417E
:1021600016F1800745F100054FEA17274FEA06668A
:1021700047EA0567A6F1DE46B6F1805F4FEA15250E
:102180001FD9384624F0010C05EBC471BCF1FE6F79
:1021900001EB0C1102D8F0BCBDE8008124425CBF09
:1021A00001F5801E9EEAC47F02D4F0BCBDE8008128
:1021B000244238D4F0BCA1F1C041BDE8004100F098
:1021C000C1B94FEAD22242EA43524FEAD323A7FBD6
:1021D00002864FEAD02040EA415007FB03661EEA20
:1021E0000E0F4FEAD12105FB026658BFA6EB005641
:1021F000B6EB00564FEA520E4EEAC37E18EB0E0EB7
:1022000056EB530EBDD518EB02085E417F1C55F10D
:102210000005B6E74FF480154FF000074FF00006B9
:102220004FF00008ADE7F0BC4FF0000001F1C041F5
:1022300001F00041BDE8008111EA0C1F0CEA131502
:1022400000D00CE013EA0C1F00F025804FF00000D6
:10225000F0BC81EA030101F00041BDE80081F0BC5F
:10226000BDE8004181EA030100F06CB9F0BCBDE8B3
:10227000004170B500F018F9097EFC3E00F007B887
:1022800081EA03014FF0000001F00041704781EA4C
:10229000030100F057B9F0BCBDE800414FF0000069
:1022A00021497047FFFDFBF9F7F5F4F2F0EEEDEB95
:1022B000E9E8E6E4E3E1E0DEDDDBDAD8D7D5D4D344
:1022C000D1D0CFCDCCCBCAC8C7C6C5C4C2C1C0BF90
:1022D000BEBDBCBBBAB9B8B7B6B5B4B3B2B1B0AF96
:1022E000AEADACABAAA9A8A8A7A6A5A4A3A3A2A17A
:1022F000A09F9F9E9D9C9C9B9A9999989797969535
:1023000095949393929191908F8F8E8E8D8C8C8BD0
:102310008B8A898988888787868585848483838258
:10232000828181800000FF070000F87FB0FA80F30F
:1023300010FA03F10AD0C3F11D0303F580634FEADD
:1023400041504FEA035202EBD12170474FF0000099
:1023500070470000DFF848C170B51CEA111E1EBFAF
:102360001CEA13159EEA0C0F95EA0C0F00F06F8023
:1023700081EA030423EA4C134EEAD47E21EA4C118D
:1023800041F4801143F48013AE44A1FB024CA0FB46
:102390000365AEF17F7E361955EB0C05A1FB034CAE
:1023A0004CF10003A0FB021C16EB0C06654153F137
:1023B0000003094218BF46F0010613F4007F0BD159
:1023C0004FEA03314FEA0530340341EA155140EA40
:1023D00016506FF003020AE04FEAC3214FEAC5200E
:1023E000F40241EA555140EA56506FF0020202EB06
:1023F0002E4201EB025585EACE710AD05FEA440C09
:1024000018BF24F0004450F1000041F1000120EA1F
:10241000D47040F2FE7C624500D270BDA84214BF69
:102420004FF080444FF04044002E08BF0024BEF11E
:10243000806FA8BFA1F1C041BDE8704080F28280EA
:102440004FF0000001F1C04101F0004170479EEAE9
:102450000C0F0CEA131518BF95EA0C0F06D04FF0BD
:10246000000081EA030E0EF0004170BD00F01CF880
:102470008900013E00F007B800F009B84FEA430CAC
:102480005FEA5C5C08D081EA030100F05BB84FEAC8
:10249000410C5FEA5C5CF6D14FF0000001497047E7
:1024A0000000FF070000F87F0EF1020E2EF0030E71
:1024B0005EF8046B364205D4012A43EB030515F59B
:1024C000001F12D8012841EB010C1CF5001F0CD88D
:1024D0000ED14FEAD17C15F5001F0CEB4C0C0CF122
:1024E000020C08BF4CEBD37C04E04FF0080C01E079
:1024F0004FEAD37C0CEB4C0526FA05F606F00706EE
:10250000B6F1040C06D20EEB860CBDE870404CF020
:10251000010C6047DFE80CF0090B02024FF00041AC
:102520004FF00000A1F5002170BD194610460128AA
:1025300051EB010418BFD4F5001484BF002001F052
:10254000004170BD0808A0F500114FEA3101704745
:1025500091EA030F10B581F000413FF5EFAC83F035
:10256000004300F009B8000010B591EA030F48BF1E
:1025700083F000433FF5E2AC841A71EB030C07D201
:1025800012198CF0004C43EB0C03001B61EB0C01A7
:10259000DFF8A4E14FEA1154A4EB135C1EEA430FE9
:1025A00018BF9EEA445F00F0B08023EA6E035242F7
:1025B00021EA0451C3EB6E0338BF5B1EDCF1200E31
:1025C00025D322FA0CFE10EB0E0043FA0CFE41EB71
:1025D0000E01CCF1200E03FA0EFE10EB0E0051F1AD
:1025E0000001CCF1200E29D412FA0EF201EB0451B5
:1025F000BDE8104058BF7047401C1CBFB2F1004FEF
:10260000704700280CBF491C20F00100704712EBF6
:10261000020E43EB030218BF4FF0010E4EEA4202D6
:10262000ACF1200CDCF11E0E54D943FA0CFE10EB79
:102630000E0051F1FF31CCF11E0ED5D50EF1010E79
:1026400012FA0EFE404141EB010101EB445C5FEAEE
:102650005C5C10D910EBDE7001EB045138BFBEF1A9
:10266000004FBDE8104018BF704700280CBF491C40
:1026700020F00100704730D24FEAD42C11F5001140
:1026800024F400641BD0B1FA81F20B3AA41AA41E00
:10269000D2F12003914030FA03F31943904001EB4B
:1026A000CC71002C01EB0451BDE81040A8BF70476D
:1026B00001F1C0414FF0000001F000417047B0FA55
:1026C00080F310FA03F100D110BDE41A173C48055D
:1026D000C90AE4E701EB045110BD491001EB0451B4
:1026E000BDE810404FEA300002E04FF000017047B3
:1026F0004A0008BF0042F8D0B2F5001F28BF70475B
:1027000001F000414FF0000070479EEA445F07D09F
:1027100011EA5E0FBDE8104004BF002100207047A1
:10272000BDE8104070B5FFF7BFFE00BF40DFF63ECA
:1027300083F00041104670470000E0FF90EA010F6F
:1027400048BF81F0004100F17081421A3CBF801AFD
:1027500089184FEAD0524FF07F4C1CEA410FA2EB90
:10276000D15318BF9CEA026F00F03B804FF0004C41
:102770004CEA00204CEA012121FA03FC10EB0C0C7E
:102780001ED202F1FF325FEA1C2040EBC25038BF7C
:1027900070471CF07F0F4FEA400C18BFBCF17F4F11
:1027A00038BF7047C3F12003994008BF20F00100F3
:1027B000BCF17F4F38BF7047A0F1C04000F028B98E
:1027C0004FEA3C00000A40EBC25028BF1CF0FF0F4C
:1027D0004FEA400CE6D018BFBCF17F4F38BF7047BE
:1027E000EAE79CEA026F05D010EA5C0F08BF00F030
:1027F0000040704710B500F0C5F800BF64FBBE3E56
:102800004FF47F0C1CEAD0121EBF1CEAD11392EACF
:102810000C0F93EA0C0F00F0858090EA010F48BF7F
:1028200042F4807240F4000C41F400002CF07F412F
:1028300020F07F4000B58142A2EB03020FF2081C9A
:10284000ACEB504EC0F100009EF800E04FEA4E0E97
:1028500000FB0EFC38BF49004FEA2C1C02F5FA02BF
:102860000CFB0EF34FEACE1E4FEA112C4FEAC121AA
:102870000EEB635E42EB22420EFB0CFC4FEA1C5354
:1028800000FB03114FEA112C4FEA01310EFB0CFC47
:102890004FEADC4C00FB0C11C14228BF09184CEB7D
:1028A00003335DF804EB10EB410143EBC250B2F58A
:1028B0007C0F38BF704729D512F0F00F1CBF00F114
:1028C000C04000F000407047008182838485868785
:1028D00088898B8C8D8E8F919293959697999A9CDF
:1028E0009D9FA0A2A3A5A7A8AAACAEB0B2B3B5B74E
:1028F000B9BCBEC0C2C5C7C9CCCED1D4D7D9DCDF24
:10290000E2E6E9ECF0F3F7FAFE0000004FEA400CD3
:102910000CF1807CBCF17E4F28BF7047B0F1C04005
:1029200000F076B890EA010F0CEAD11348BF42F4E8
:102930008072624538BF634507D213F47F0F16D00B
:1029400080EA010000F00040704710B500F01AF86E
:10295000097EFC3E00F005B880EA010000F000406E
:10296000704780EA010000F0004000F051B812F416
:102970007F0F04BF0248704780EA010000F048B8AA
:102980000000C07F0EF1020E2EF0030E5EF8044B25
:10299000244204D44FEA4102B2F17F4F11D84FEAEA
:1029A0004003B3F17F4F0CD80ED14FEAD07CB2F187
:1029B0007F4F0CEB4C0C0CF1020C08BF4CEBD17CA4
:1029C00004E04FF0080C01E04FEAD17C0CEB4C0323
:1029D00024FA03F404F00704B4F1040C06D20EEB5D
:1029E000840CBDE810404CF0010C6047DFE80CF0AF
:1029F000070802024FF00040A0F5800010BD084615
:102A0000420018BFD2F1807288BF00F0004010BDB4
:102A1000FF2141EAD050C0057047000090EA010F45
:102A200048BF81F000413FF590AE421A04D882F0D1
:102A30000042A0EB020011444FEAD0524FF07F4C0D
:102A40001CEA410FA2EBD15318BF9CEA026F4AD097
:102A50004FF0004C4CEA00204CEA012121FA03FC23
:102A6000B0EB0C0C0FD412F0FE0F36D05FEA4C0026
:102A70001DD5001240EBC25038BF70471CF03F0F0D
:102A800018BF70470BE0A2F101025FEA1C2040EB87
:102A9000C25038BF70471CF07F0F18BF7047C3F19A
:102AA0002003994014BF401E20F0010070478008A9
:102AB0004FEA122308BF7047B0FA80FCA2EB0C0269
:102AC000CCF1280C60FA0CF093EA122F04BF00EB53
:102AD000C25070474FEAC3707047130A5FEADC10B8
:102AE00008BF7047F6E79CEA026F04D010EA5C0F5B
:102AF00008BF0020704710B5FFF744FF40DFF63EE7
:102B000081F000407047030406080C1018203000C4
:102B1000000000000000000102030406070809008D
:102B20000000000102030400482B00080000002000
:102B30003C00000060010008842B00083C000020DD
:102B4000340800007C010008001A000000000000AA
:102B5000000000000000000000000000B80B0000B2
:102B60000000000000000000000000000000000065
:102B70000000000010000000010000000000000044
:042B800068FF1F00CB
:0400000508000125C9
:00000001FF
