:020000040800F2
:1000000020080020C9010008A5200008951B000851
:10001000DD1F0008F5050008652400080000000049
:10002000000000000000000000000000292100087E
:100030005D06000800000000A72000082B21000832
:10004000E3010008E3010008E3010008E301000800
:10005000E3010008E3010008E3010008E3010008F0
:10006000E3010008E3010008E3010008E3010008E0
:10007000E3010008E3010008E3010008E3010008D0
:10008000E3010008E3010008E3010008E3010008C0
:10009000E3010008E3010008E3010008E3010008B0
:1000A00000000000E3010008E3010008E30100088C
:1000B000E3010008E3010008E3010008E301000890
:1000C000E3010008E3010008E3010008E301000880
:1000D000E3010008E30100084D240008592400084A
:1000E000E3010008E3010008E3010008E301000860
:1000F000E301000800000000E3010008E30100083C
:100100000000000000000000E3010008E301000817
:10011000E3010008E3010008E3010008000000001B
:10012000E301000800F002F800F03FF80AA090E8B0
:10013000000C82448344AAF10107DA4501D100F0A2
:1001400034F8AFF2090EBAE80F0013F0010F18BF30
:10015000FB1A43F001031847BC310000DC310000FA
:10016000103A24BF78C878C1FAD8520724BF30C8E3
:1001700030C144BF04680C607047000000230024B5
:1001800000250026103A28BF78C1FBD8520728BFA7
:1001900030C148BF0B607047642900F0F580002033
:1001A00070471FB51FBD10B510BD00F0EEF9114628
:1001B000FFF7F7FF02F070FB00F00CFA03B4FFF753
:1001C000F2FF03BC00F010FA0948804709480047D5
:1001D000FEE7FEE7FEE7FEE7FEE7FEE7FEE7FEE7F7
:1001E000FEE7FEE704480549054A064B7047000054
:1001F0009D21000825010008200200202008002081
:10020000200400202004002053EA020C00F0698042
:100210002DE9F04B4FF00006002B1FBFB3FA83F51A
:1002200003FA05F424FA05F65E4012BF1643B2FA4B
:1002300082F502FA05F4C5F120051EBF22FA05FC7D
:1002400044EA0C04203556EA044C4FEA144418BF23
:10025000641C4FF000084FF00009904271EB030C52
:1002600039D3002919BFB1FA81F701FA07F6B0FABC
:1002700080F700FA07F6C7F120071EBF20FA07FC37
:1002800046EA0C062037B6FBF4FCA7EB0507103F47
:1002900007F01F0BCBF120060CFA0BFB2CFA06F62D
:1002A00044BFB3460026202FA4BF5E464FF0000B8C
:1002B0005BEA060C08BF4FF0010B19EB0B09ABFB17
:1002C000027C48EB0608C01B06FB02CC0BFB03CCF0
:1002D00071EB0C01C1E70B46024641464846BDE8BA
:1002E000F08B13B54FF000004FF00001AFF300802A
:1002F000BDE81C40704700000FB41CB5074B06AAB0
:100300007B4469460090059800F021F90020694679
:1003100000F030F91CBC5DF814FB00007102000015
:100320002DE9F0410E460446002020622046E16897
:10033000884730B3252805D0D4E901219047206AA9
:10034000401CF2E7E168204600278847050018D0E6
:10035000A5F14100192802D820354FF40067324634
:10036000294620462760FFF717FF40B1012804D037
:10037000F61D26F007060836D8E7361DD6E72846CC
:10038000DAE7206ABDE8F0812DE9F0410646002455
:1003900010687529314616A510D0AFF300800028EB
:1003A00002DA404213A507E031688A0701D512A599
:1003B00002E0490704D511A5012401E0AFF3008054
:1003C00000210A2206F1240709E0B0FBF2FCB0FB91
:1003D000F2F302FB1C00303078541846491C002808
:1003E000F3D123462A463046BDE8F04100F051B82B
:1003F000000000002D0000002B0000002000000085
:1004000010B5431C02E010F8011B71B18107FAD14D
:100410004FF0013202C88C1A8C4314EAC211F9D091
:10042000C01A0A0603D0C01E10BDC01A10BD0A04AF
:1004300001D0801E10BD0902FCD0401E10BD4FF03F
:10044000000200B5134694469646203922BFA0E824
:100450000C50A0E80C50B1F12001BFF4F7AF090730
:1004600028BFA0E80C5048BF0CC05DF804EB890021
:1004700028BF40F8042B08BF704748BF20F8022B64
:1004800011F0804F18BF00F8012B7047704770477C
:1004900070472DE9F0470D4699469246044600F113
:1004A00024080168880604D5E06921F01001216064
:1004B00000E00120A84201DD471B00E00027A16900
:1004C0007A1902EB0900081AA0612078C00602D44C
:1004D0002046AFF30080002608E0D4E901211AF895
:1004E00006009047206A401C761C20624E45F4DBD3
:1004F0002078C0060AD52046AFF3008006E0D4E994
:10050000012130209047206A401C2062381EA7F14C
:100510000107F4DC07E0D4E9012118F80500904751
:10052000206A401C2062281EA5F10105F3DC20464C
:10053000AFF300802078000602D50220BDE8F087E6
:100540000120FBE701694A1C02610878704700B589
:100550008FB0CDE901310021059105497944CDE9FC
:10056000031011466846FFF7DBFE0FB000BD000028
:10057000E5FFFFFF0A6802F8010B0A607047000000
:1005800000487047C001002070477546FFF7F8FF2C
:10059000AE4605006946534620F00700854618B070
:1005A00020B5FFF71FFEBDE820404FF000064FF0DA
:1005B00000074FF000084FF0000B21F00701AC4698
:1005C000ACE8C009ACE8C009ACE8C009ACE8C009B7
:1005D0008D46704710B50446AFF300802046BDE855
:1005E0001040FFF7EBBD000001491820ABBEFEE74D
:1005F00026000200FEE700002DE9F0410546002636
:10060000C088154C374618B3608830B900F0B8F987
:10061000A06001206080E888208000F0B1F9A16826
:10062000884200D2A76000F0ABF9A168401A012807
:100630000FD9608801280CD1E8882188884201D12F
:10064000012606E000F09CF9A060E888208000E028
:1006500067803046BDE8F08104000020704700004C
:1006600010B5C38800220649C28002718B801146F2
:1006700002E04418491C22729942FADB10BD0000C6
:100680000400002010B590F821100022022905D0A6
:100690000421816380F82020012010BD01680B68CF
:1006A00023F00E030B6001680B6823F001030B605D
:1006B00090F84010C46B01F01C03012101FA03F310
:1006C000636080F8211080F82020104610BD10B51E
:1006D00090F821100024022903D004218163012411
:1006E0001AE001680A6822F00E020A6001680A68CE
:1006F00022F001020A6090F84010C36B01F01C0266
:10070000012101FA02F25A6080F82110002180F8DC
:100710002010416B01B18847204610BD70B50446DA
:1007200000F02EF90546601C02D0044840680444DD
:1007300000F026F9401BA042FAD370BD340000201F
:100740002DE9F04FDFF80C92002209F1040A01258F
:1007500003240AF1040B85B00F260BF1040EF0E020
:1007600005FA02F71CEA07037ED091F804C00CF0EA
:10077000030CBCF1010F02D0BCF1020F26D1D0F85E
:1007800008C0CDF800C04FEA420C04FA0CF8CDF8CE
:1007900010C0DDF800C02CEA080CCDF800C0D1F87C
:1007A0000C80DDF810C008FA0CF8DDF800C048EA4B
:1007B0000C08C0F80880D0F804C02CEA070C0F79A8
:1007C000C7F30017974047EA0C0747600F79FF43CC
:1007D000BF070ED0C7684FEA420804FA08FC27EAB0
:1007E0000C07D1F808C00CFA08FC4CEA070CC0F85A
:1007F0000CC00F7907F00307022F15D1D70800EBC3
:10080000870702973F6A4FEA427C4FEADC6806FAA4
:1008100008FC27EA0C07D1F810C00CFA08FC4CEAD7
:10082000070C029FC7F820C007684FEA420804FA85
:1008300008FC27EA0C0791F804C00CF0030C0CFA32
:1008400008FC4CEA070CC0F800C04F6817F4403FA2
:1008500076D0414FD7F800C04CF0010CC7F800C06B
:100860003F6807F0010700E06AE000973B4F22F085
:10087000030C67440297BF684FEA827C4FEA1C78FA
:1008800006FA08FC27EA0C07DFF8D4C0604502D15D
:100890004FF0000C1DE0DFF8CCC0604502D14FF0F6
:1008A000010C16E0DFF8C0C0604502D14FF0020C29
:1008B0000FE0DFF8B8C0604502D14FF0030C08E04C
:1008C000DFF8ACC0604502D14FF0040C01E04FF0FE
:1008D000050C0CFA08FC4CEA070C029FC7F808C08C
:1008E000D9F80070CC46D1F804809F435FEAC8383D
:1008F00000D51F43CCF80070DAF80070D446D1F868
:1009000004809F435FEA883800D51F43CCF800700D
:10091000DBF80070DC46D1F804809F435FEAC8280A
:1009200000D51F43CCF80070DEF80070F446D1F813
:1009300004809F435FEA882800D51F43CCF80070ED
:10094000521C0B689C46D3407FF40AAF05B0BDE84B
:10095000F08F0000000401402038024000000140F8
:10096000000002400004024000080240000C024067
:10097000001002400AB1816170470904FBE70000E2
:1009800001488068704700003400002070B5040002
:1009900025D094F83D00002520B984F83C5020462D
:1009A00000F03EFA242084F83D002068016821F020
:1009B000010101602068016841F400410160206884
:1009C000016821F40041016000F0CAFB4D4A6168F2
:1009D000914201D84C4900E04C49884201D20120A3
:1009E00070BD4B492368B0FBF1F15E6826F03F060D
:1009F0000E435E606368934206D94FF49673594381
:100A00004FF47A73B1FBF3F12368491C1E6A26F098
:100A10003F06314319626168914210D84900401E77
:100A2000B0FBF1F2521CC2F30B02042A01D20420E3
:100A300022E0B0FBF1F0401CC0F30B001CE0A26808
:100A4000F2B301EBC10303EB0116431EB3FBF6F354
:100A50005B1C43F480431B0549D092B301EBC102F8
:100A600002EB0111401EB0FBF1F0401CC0F30B0083
:100A700040F4804040F400402168CA694CF6FF739E
:100A80009A431043C861D4E9071001432068026803
:100A900022F0C00211430160D4E903010143206840
:100AA000826848F2FF339A4311438160D4E905011B
:100AB00008432168CA6822F0FF021043C86001E0C1
:100AC0000EE016E02068016841F001010160256434
:100AD000202084F83D00256384F83E50002070BD3E
:100AE00001EB4106431EB3FBF6F35B1CB3E70120A9
:100AF000C2E701EB4101401EB0FBF1F0401CC0F326
:100B00000B00B7E7A086010080841E0000093D00AD
:100B100040420F002DE9F84F1F4690468A46044692
:100B2000DDF82890FFF72CFF054694F83D002028BB
:100B300075D1192301226C492046009501F02CF94A
:100B40000028F5D194F83C00012868D0012084F8F1
:100B50003C0020680168C90703D1016841F0010128
:100B600001602068016821F400610160222084F89E
:100B70003D00102084F83E0000262664C4F824803E
:100B80006785608D20855948E0622B464A4651466C
:100B9000204601F017F8002878D1208D544F68B115
:100BA000012814D002282068016816D041F4806121
:100BB0000160206841698069009087E02068416990
:100BC00081690091016841F4007101607EE0206854
:100BD000016821F480610160F0E721F48061016027
:100BE0002068016841F40061E2E7032848D8012841
:100BF0000AD0022814D04B460022394620460095E0
:100C000001F0CAF8D8BB27E02A464946204601F041
:100C100042F9A0BB20680069616A08704DE061E09C
:100C20004B46002239462046009501F0B5F830BB0E
:100C30002068016841F40071016020680069616A00
:100C40000870606A401C6062218D491E2185618D9B
:100C5000491E618521682EE02068016821F48061C9
:100C6000016020680069616A0870606A401C606207
:100C7000208D401E2085608D401E6085D0E705E0F8
:100C80002A464946204601F006F910B10120BDE888
:100C9000F88F20680069616A0870606A401C6062B1
:100CA000218D491E2185618D491E618521684A6912
:100CB000D24352070AD409690170606A401C60621D
:100CC000208D401E2085608D401E6085208D00286F
:100CD0008BD1202084F83D0084F83E6084F83C608D
:100CE0000020D4E70220D2E7020010000000FFFF3E
:100CF000040001002DE9F84F1F4690468A4604463D
:100D0000DDF82890FFF73CFE054694F83D002028CA
:100D10007FD11923012240492046009501F03CF87B
:100D2000002876D194F83C00012872D0012084F884
:100D30003C0020680168C90703D1016841F0010146
:100D400001602068016821F400610160212084F8BD
:100D50003D00102084F83E0000262664C4F824805C
:100D60006785608D20852D48E0622B464A465146B6
:100D7000204600F09DFF90B920684169806900908D
:100D800036E02A464946204601F0B8F850B1206CBA
:100D9000042804D12068016841F400710160012039
:100DA000BDE8F88F606A216800780861606A401CBD
:100DB0006062618D491E6185218D491E89B2218540
:100DC00022685369DB435B070BD451B10078106193
:100DD000606A401C6062608D401E6085208D401EF0
:100DE00020852A464946204600F0B0FF0028CED193
:100DF000208D0028C5D154F83D0B016841F40071E5
:100E00000160202004F81E09E67766770020C7E716
:100E1000FFE70220C4E70000020010000000FFFF0F
:100E200010B586B0044614216846FFF708FB144944
:100E30002068884221D11348016841F00201016015
:100E40000068694600F0020005904FF44060009091
:100E500012200190002002900320039004200490AF
:100E60000948FFF76DFC07480830016841F480012C
:100E70000160006800F48000059006B010BD00001D
:100E8000005800401C3802400004024002488168BB
:100E900042681144816070473400002010B500247E
:100EA000032000F079F80F2000F008F808B10124C1
:100EB00001E000F025F8204610BD000070B50E4E90
:100EC00005460024706898B14FF47A71B1FBF0F0D8
:100ED0000A490968B1FBF0F000F0ABFB40B9102DF6
:100EE00006D200222946501E00F036F8356000E098
:100EF0000124204670BD0000340000204000002086
:100F00000D4808B5016841F000410160016801F039
:100F100000410091011F0A6842F001020A6009685D
:100F200001F001010091016841F080510160006809
:100F300000F08050009008BD24380240002809DBF2
:100F400000F01F02012191404009800000F1E020E3
:100F5000C0F8001170470000F0B40E4B1B680C463F
:100F6000C3F30223C3F10705042D00D90425191D7D
:100F7000072901D2002300E0DB1E012606FA05F155
:100F8000491E214099409E40761E16403143F0BCD8
:100F900001F069BA0CED00E0064900F007020868AC
:100FA0004FF6FF03184040EA0220034A104308604E
:100FB000704700000CED00E00000FA052DE9F04755
:100FC0000E46050079D0DFF88481D8F8000000F0E3
:100FD0000100B04214D2012E05D1D8F8001041F022
:100FE0000401C8F80010D8F8001021F001013143C5
:100FF000C8F80010D8F8000000F00100B0425CD141
:101000002878534C800705D52068A96820F0F000A7
:10101000084320602878C0075CD04D4968680839CB
:1010200002281AD003281BD0096801281BD0890583
:10103000002966DA216821F0030101432160FFF7EE
:101040009FFC6968074641F28830022914D00329C1
:1010500020D0012981462AD038E009688903E7E7D2
:1010600009688901E4E78907E2E700BFFFF788FC28
:10107000C11B494501D926E081462068C0F38100A3
:101080000228F3D126E000BFFFF77AFCC11B4945D7
:1010900001D918E081462068C0F381000328F3D10C
:1010A00018E000BFFFF76CFCC11B49450BD8206856
:1010B000C0F381000128F5D10CE022E0FFF760FCCD
:1010C000C11B494502D90320BDE8F087206810F014
:1010D0000C0FF3D1D8F80010404601F00101B142E5
:1010E00011D9012E03D1016841F0040101600168AA
:1010F00021F0010131430160006800F00100B042BD
:1011000001D00120E0E72878400705D52068E9688C
:1011100020F4E060084320602878000706D52068A6
:10112000296920F4605040EAC100206000F038F8DE
:101130002168084AC1F30311515CC84006490860A0
:1011400006480068BDE8F047FFF7B8BE003C024023
:1011500008380240F9320008400000203400002026
:101160000448054900680968044AC1F30221515C3A
:10117000C84070474000002008380240093300088A
:101180000448054900680968044AC1F3C221515C5A
:10119000C84070474000002008380240093300086A
:1011A00070B5154D2968154801F00C02042A0CD0C1
:1011B000134C082A0AD00C2A0AD0281F0068C0F352
:1011C00042314FF40040491C884070BD204670BD3C
:1011D0000C4AC1F38343D35CC1F381522968521C8A
:1011E000C90302D5A3FB040101E0A3FB0001002316
:1011F000FFF70AF870BD0000083802400024F40030
:1012000000366E01F03200082DE9F84F04007DD061
:10121000FC480168006801F00C0700F48036207873
:10122000F94DC00741D0082F12D00C2F02D1B6F5CE
:10123000803F0DD06068012811D008B1052818D072
:10124000286820F480302860286820F4802009E095
:101250002868800329D560680028D8D025E0286850
:1012600040F480302860606890B1FFF789FB8046C9
:101270000AE0286840F480202860F0E7FFF780FB50
:10128000A0EB080064287BD828688003F6D50CE022
:10129000FFF776FB804605E0FFF772FBA0EB080046
:1012A0006428F0D828688003F6D42078DFF85CB38F
:1012B000DFF85C8380074FF001094FF0000A35D555
:1012C000042F0AD00C2F00D13EB1E068F8B1C8F865
:1012D0000090FFF755FB06460BE0286880070BD50A
:1012E000E068012812D107E0FFF74AFB801B0228C3
:1012F000C9D828688007F7D5DBF80010226921F4E7
:10130000F85141EA0221CBF800100FE077E1C8F86C
:1013100000A0FFF735FB064605E000BFFFF730FBF6
:10132000801B0228AFD828688007F7D42078C00631
:1013300074D53FB1A069E0B3C8F82090FFF720FB57
:1013400006464AE02868800502D5A069002884D0B6
:10135000206ADBF800105E4601F46041884210D933
:1013600000F0A2FE0028BDD13068216A20F4604060
:1013700008433060217F306861F31F6030600FE008
:1013800096E0316821F4604101433160217F30688B
:1013900061F31F603060206A00F086FE0028A1D152
:1013A000216A4FF4004009EB5131884095490968A2
:1013B00000E025E0974AC1F30311515CC84096490B
:1013C000086096480068FFF779FD00286FD125E096
:1013D000FFF7D6FA801B02286AD828688005F7D55F
:1013E000DBF80010226A21F460411143CBF80010B1
:1013F000227FDBF8001062F31F61CBF800100DE0D4
:10140000C8F820A0FFF7BCFA064604E0FFF7B8FAD8
:10141000801B02284CD828688005F7D42078804E9D
:10142000000722D57F48616981B1C0F80090FFF7BD
:10143000A7FA834606E000BFFFF7A2FAA0EB0B0075
:10144000022835D830688007F6D50EE0C0F800A035
:10145000FFF796FA834605E0FFF792FAA0EB0B0040
:10146000022825D830688007F6D4207840076DD54B
:101470006B484FF0000B10380068C0000BD4684870
:101480001038016841F08051016000684FF0010B95
:1014900000F08050009064480168C90514D40168C8
:1014A00041F480710160FFF76BFA009008E08DE075
:1014B00079E000BFFFF764FA0099401A642872D8F7
:1014C00059480068C005F5D5A06801280AD008B1C0
:1014D000052811D0306820F480703060306820F426
:1014E000806002E0306840F480703060A068A8B18D
:1014F000FFF746FA00900DE0306840F480603060FD
:10150000F0E700BFFFF73CFA0099411A41F288303A
:1015100081425AD830688005F4D50EE0FFF730FAE2
:10152000009007E0FFF72CFA0099411A41F2883049
:1015300081424AD830688005F4D4BBF1000F05D051
:1015400037481038016821F080510160606A58B353
:101550000C2F41D00228504605D0C8F86000FFF794
:101560000FFA044634E04746C8F86000FFF708FA6F
:10157000064604E0FFF704FA801B022825D82868F5
:101580008001F7D4D4E90A1001431E48226B036896
:1015900023F47D031A4311430160C7F86090FFF7FD
:1015A000EFF9044607E010E040E000BFFFF7E8F97C
:1015B000001B022809D828688001F7D536E000BF53
:1015C000FFF7DEF9001B022802D90320BDE8F88FDF
:1015D00028688001F4D429E00128F7D00948006880
:1015E000A26A00F48031914209D1E26A00F47011DC
:1015F000914204D1216B00F44000884216D00120B2
:10160000E4E7000008380240003802400438024095
:1016100000004742F932000840000020340000205A
:101620003438024080064742007000400020CDE779
:10163000704710B5401EB0F1807F01D3012010BD6E
:101640004FF0E02460610F21601700F00CFF0020D4
:10165000A06107202061002010BD10B5FFF7E8FF52
:1016600010BD704770470000F8B502680446106866
:10167000D168536910F00F0F4FF0000553D003F0FD
:10168000010601F4907737435FD0C20705D0CA0541
:1016900003D5226C42F001022264420705D5DA0725
:1016A00003D0226C42F002022264820705D5DA07D9
:1016B00003D0226C42F004022264020707D501F035
:1016C0002002324303D0226C42F008022264226CD2
:1016D000002A34D0800604D5880602D5204600F0C2
:1016E0007EFD20684069216CC0F38010090700D49A
:1016F00030B3204600F05BFD2068416949061BD5E8
:10170000416921F040014161A06BA8B15849416392
:10171000A06BFEF7DCFF002811D0A06B416B01B07D
:10172000BDE8F040084783060FD58B060DD520464F
:10173000BDE8F84000F053BD2046FFF793FFF8BD29
:101740002046FFF78FFF2564F8BD266B2023012E6E
:1017500052D1C60650D5CE064ED5106850680090BE
:10176000506940062AD5A16B086840680004000C47
:10177000EAD0A68D8642E7D9E0858869202818D06E
:10178000D06820F48070D0602068416921F00101A8
:1017900041612068416921F04001416184F83E3097
:1017A00025632068C16821F01001C160A06BFEF7BD
:1017B00069FFA08DE18D401A81B219E0A08DE18D05
:1017C000401A81B2E08D0028BED00029BCD0D0687C
:1017D00020F49070D0602068426922F001024261DA
:1017E00084F83E3025632068C26822F01002C2608F
:1017F0002046FFF736FFF8BD05062BD50D0629D587
:1018000094F83D002128F6D1A068B0F5805F01D1A1
:101810002069B0B1206A411C2162216800784860CB
:10182000E08C401E0004000CE084E4D12068C16814
:1018300021F08001C1602068C16841F04001C160B1
:10184000F8BD206A0088C0F308005060206A801C40
:101850002062E5E74006F3D54806F1D5D168204679
:1018600021F04001D16084F83D3000F022F9F8BD4C
:101870009F21000870B5040004D094F83D000025B5
:1018800010B106E0012070BD84F83C50204600F005
:1018900023F8242084F83D002068C16821F4005119
:1018A000C160204600F0F6FC2068016921F49041F7
:1018B00001612068416921F02A0141612068C16805
:1018C00041F40051C1602564202084F83D0084F873
:1018D0003E00002070BD000070B586B004461421A3
:1018E0006846FEF7ACFD2B48294E25682949083883
:1018F000022203230724B54221D10D6845F40035A7
:101900000D60096801F400310591016841F00101A1
:101910000160006802AD00F0010005900C20CDE9E7
:101920000002012085E8190069461B48FEF708FF00
:10193000002211462620FFF70FFB262024E0174E39
:10194000B54223D10D6845F480250D60096801F486
:1019500080210591016841F004010160006802AD39
:1019600000F0040005904FF44060CDE90002002033
:1019700085E8190069460A48FEF7E2FE0022114692
:101980002720FFF7E9FA2720FFF7D8FA06B070BD45
:10199000004400402438024000000240004800405B
:1019A0000008024090F83E30202B0ED159B152B1C0
:1019B00090F83C30012B08D0012380F83C30002304
:1019C000036300F0F5BC012070470220704700005F
:1019D0000A490068096888420ED1084907488831D9
:1019E000903011F8042F4B881A544888401C4880C6
:1019F00001220248FFF7D6BF70470000E800002030
:101A00002DE9F843044690F83D001F4616460D4662
:101A100020284CD1C5B1BEB194F83C00012846D075
:101A2000012084F83C004FF00008C4F840802120D9
:101A300084F83D00FEF7A4FFA6848146E684A068F2
:101A4000B0F5805F03D004E00120BDE8F883206991
:101A500028B12E465FF0000584F83C800EE0002699
:101A6000FAE78021204600F0BEFCA0B9AEB116F81E
:101A7000010B21684860E08C401EE084E08C4B46FE
:101A80004FF0000200970028EBD14FF040012046B4
:101A900000F0A9FC30B10320D7E735F8020BC0F302
:101AA0000800E6E7202084F83D000020CDE7022072
:101AB000CBE770472DE9FC5F002580466420CDE927
:101AC000000516460F462C462B4601AA88214046A3
:101AD000FFF710F9DFF8A89038B199F80000032853
:101AE00048D2401C89F8000046E03220FEF716FE7E
:101AF0004FF47A700090042301AA88214046FFF732
:101B000009F8050038D1BDF80400BDF8061040BA48
:101B100049BAC0F30D004FEA910801F0EEF9DFF881
:101B200064A00022534601F061F8DFF85CB00022A7
:101B30005B4601F0F5F901F0B1F93080404601F063
:101B4000DCF90022534601F051F800220F4B01F05E
:101B5000E7F900220E4B01F0E1FA00225B4601F0AA
:101B6000DFF901F09BF9388099F8001021B189F86C
:101B7000004001E03C8034802846BDE8FC9F000026
:101B80000000002080FFCF400000594000A06440CA
:101B900000004440FEE701684A69D24352050FD471
:101BA0006FF480624A61002140F8301F20224273A6
:101BB0008173026942F004020261017301207047DF
:101BC000002070472DE9F84F0446C06A1E46934630
:101BD0000D4621680A6842F480620A60082807D02E
:101BE000012805D010F5803F02D0206B112804D1C8
:101BF0002068016841F4807101604FF001195B4673
:101C0000002249462046009600F0C6F84FF40078BE
:101C100040B120680068C00501D5C4F840800320A9
:101C2000BDE8F88F2069DFF884A0B0F5804F0FD0B1
:101C30000620216800EAD51747F0F0000861334616
:101C40005A460AF10601204600F0DAF858BB03E0D4
:101C5000E8B240F001001CE02168E8B208613346B8
:101C60005A465146204600F0CBF8E0B92068416959
:101C700081690091016841F4807101605B46002236
:101C800049462046009600F087F80028C1D147F069
:101C9000F1002168086133465A465146204600F05B
:101CA000AFF80028BCD00120BAE700000200010014
:101CB000F8B50446C06A1E460D461746082807D0E8
:101CC000012805D010F5803F02D0206B122804D1E6
:101CD0002068016841F480710160134600224FF0D2
:101CE00001112046009600F057F840B120680068C6
:101CF000C00502D54FF4007020640320F8BD2069B0
:101D0000B0F5804F0ED00620216800EAD51040F0D3
:101D1000F000086133463A460B49204600F070F85F
:101D200078B902E005F0FE0000E0E8B22168086141
:101D3000054933463A46891F204600F061F80028DD
:101D4000DCD00120F8BD00000800010070B5164687
:101D50000D4604460DE02046FFF71DFF08B10120A7
:101D600070BD681C05D0FEF70BFE801BA84207D88B
:101D700035B120684069C0434007ECD4002070BDF5
:101D8000002044F8300F20216173A073216941F0D5
:101D9000200121612073E2E72DE9F0471E469046BD
:101DA0000D460446C1F30747DDF8209008E0701C9B
:101DB00006D0FEF7E5FDA0EB0900B0420FD876B1E2
:101DC0002068012F18D0806925EA00000004000C6B
:101DD00014D000214145EAD00020BDE8F087002062
:101DE00044F8300F20216173A073216941F0200174
:101DF000216120730120F0E74069E5E70121E9E76F
:101E00002DE9F0479A4691460E46044600254FF0CC
:101E10002008C1F3074725E020684069C04340051A
:101E200014D42068016841F40071016021686FF4E6
:101E300080604861256384F83D8084F83E50206CC2
:101E400040F00400206484F83C501FE0B9F1FF3FEB
:101E500008D0FEF795FDA0EB0A0149450CD8B9F171
:101E6000000F09D02068012F13D0806926EA0000F6
:101E70000004000C0BD0CFE744F8305F84F80D80ED
:101E8000A573206940F02000206125730120BDE882
:101E9000F0874069EAE72DE9F041002590460E46BB
:101EA0000446202717E04069C043C0060CD454F80C
:101EB000301B6FF01000486144F810596777A57720
:101EC000206A2062257717E0FEF75AFDA0EB080094
:101ED000B04208D83EB120684169C9434906E2D4FE
:101EE0000020BDE8F08144F8305F6773A573206976
:101EF00040F02000206125730120F2E770B51646FE
:101F00000D4604460DE02046FFF745FE08B10120CE
:101F100070BD681C05D0FEF733FD801BA84207D8B2
:101F200035B120684069C0430006ECD4002070BD84
:101F3000002044F8300F20216173A073216941F023
:101F4000200121612073E2E72DE9F04186B01421E0
:101F50006846FEF774FA1E48016841F0010101600D
:101F6000016801F001010591016841F00201016081
:101F7000016801F002010591016841F0040101606E
:101F80000068144F00F0040005900022022138463A
:101F9000FEF7F0FCDFF84080BE14002231464046D8
:101FA000FEF7E8FC0220009001250024CDE9015451
:101FB000694638460394FEF7C3FB0096CDE9015409
:101FC000694640460394FEF7BBFB06B0BDE8F081CE
:101FD0001C3802400000024000040240FEE770B5D9
:101FE00005464FF6FF7000224AF201040AE0AB5C9E
:101FF00058400823C6074FEA500000D060405B1EDF
:10200000F8D1521C8A42F2DB70BD30B50446039809
:102010002568297021684A702268190A9170216820
:10202000CB702268010A117121684871062120686D
:10203000FFF7D5FF216888712168000AC871082060
:10204000A08030BD70B51548FEF7D6FA012823D11F
:10205000124C257A607AA5F11A01092919D80328AA
:1020600012D1E188A01D0844891E068804F10800E9
:10207000FFF7B5FFB04207D134F80B0F41BA08485B
:102080004181E18849BA81810448FEF7E9FA28468E
:1020900070BD0248FEF7E4FA002070BD7001002018
:1020A00010000020FEE7704738B51C49002309687E
:1020B0001B4A11F0F00F23D118491C310C68E500C0
:1020C000184C03D5216801F4C0540EE00D6845F0AA
:1020D00080550D600D6805F08055009524680D68E9
:1020E00004F4C05425F080550D60B4F5C05F07D1ED
:1020F000B0F5404F04D11068012340F00400106097
:10210000106820F0010018431060106800F0010012
:10211000984201D0012038BD002038BD0838024067
:10212000003C024000700040704710B5FEF7AEFE64
:10213000BDE81040FFF791BA30B593B0342168463E
:10214000FEF77DF914210DA8FEF779F91248016810
:1021500021F4C05141F4006101600220009000248C
:10216000012510200994CDE903506846FFF74CF88B
:1021700008B172B6FEE70F20CDE90E540D90109411
:1021800000210DA81194FEF719FF002801D072B6A6
:10219000FEE713B030BD000000700040704710B57E
:1021A000406A0021C185C184FFF75CFA10BD016857
:1021B000CA6822F49072CA6001684A6922F001027A
:1021C0004A61016B012904D10168CA6822F010023A
:1021D000CA60202180F83E1000210163704708B5D5
:1021E00090F83E10222901D0022008BD82684FF4E9
:1021F00080539A4201D1016921B1816A9A421BD070
:102200004AB10AE00268816A5268C2F308020A8091
:10221000816A891C08E0026972B10268526802F0A2
:102220007F020A70816A491C8162C18D491E0904BE
:10223000090CC18503D019E002685268F1E7016812
:10224000CA6822F02002CA600168CA6822F480725B
:10225000CA6001684A6922F001024A61202180F8BF
:102260003E10016B012903D0FFF7B2FB002008BD2F
:10227000002101630168CA6822F01002CA60016887
:102280000A68D20602D50A6849680091818DFFF775
:10229000E8F9EBE72DE9F041044600680169E268DE
:1022A00021F44051114301612169A068E2690843AA
:1022B0006169114322680843D16849F20C6399436C
:1022C0000143D16020684169A26921F44071114342
:1022D000416136492068884202D1FEF751FF01E092
:1022E000FEF73EFF0246E36964203221B3F5004F5A
:1022F00002EBC20303EB021362682BD09200B3FB24
:10230000F2F5B5FBF0F5B3FBF2F66FF018077D437D
:1023100006EB8505B3FBF2F601EB0515B5FBF0F511
:10232000B6FBF0F605F0F00505EB0615B3FBF2F68B
:10233000B3FBF2F2B2FBF0F27A4306EB820201EB5E
:102340000211B1FBF0F000F00F0021682844886012
:10235000BDE8F0815200B3FBF2F6B6FBF0F6B3FB3A
:10236000F2F7B3FBF2F56FF0180C06FB0CF607EB77
:10237000860601EBC606B5FBF0F5B6FBF0F62D01BF
:1023800006F0F80605EB4605B3FBF2F6B3FBF2F2F6
:10239000B2FBF0F202FB0CF206EB820201EBC2018F
:1023A000B1FBF0F000F00700CFE70000003801407B
:1023B00081628285C28500210164222280F83E204C
:1023C00080F83C100168CA6842F48072CA600168F3
:1023D0004A6942F001024A610068C16841F0200187
:1023E000C160002070472DE9F041984617460E461F
:1023F0000446069D1DE0681C1BD02DB1FEF7C0FAF7
:10240000A0EB0800A84214D92068C16821F4D0715B
:10241000C1602068416921F001014161202084F8F8
:102420003D0084F83E00002084F83C000320BDE815
:10243000F0812068006836EA000004D00020B8422D
:10244000D9D00020F3E70120F9E700000148FFF7A9
:102450000BB90000E80000200148FFF705B90000B3
:102460002C010020FEE70907090E002804DB00F11B
:10247000E02080F80014704700F00F0000F1E02029
:1024800080F8141D704700002DE9FE4FAF48DFF8BB
:10249000C0824FF0000B016A5E46491C0162B8F829
:1024A0000400B8F80820B8F806108DE80700DA46EE
:1024B0005D464446B8F80230B8F80020A5A108F5FA
:1024C000A470FDF719FF08F5A470FDF799FF82B21B
:1024D0004FF47A7708F5A4713B46A1F16000FFF74D
:1024E0008FFA3B460122A5A108F1E800FFF788FA20
:1024F000E089628A218A8DE80700A3896289A0A108
:1025000008F5A470FDF7F8FE08F5A470FDF778FF54
:1025100082B208F5A4713B46A1F16000FFF770FAA2
:102520003B460222A0A108F1E800FFF769FA3B460A
:1025300002229DA108F1E800FFF762FA1434A08896
:102540002289E1888DE807006388228897A104F535
:102550009A70FDF7D1FE04F59A70FDF751FF82B233
:1025600004F59A713B46A1F16000FFF749FA3B463A
:1025700002228DA104F1D400FFF742FAE089628AB9
:10258000218A8DE80700A389628992A104F59A70D7
:10259000FDF7B2FE04F59A70FDF732FF82B204F542
:1025A0009A713B46A1F16000FFF72AFA3B460222EE
:1025B0007DA104F1D400FFF723FA3B4602227AA161
:1025C00004F1D400FFF71CFA002213469446174684
:1025D0001146404630F81180B8F1000F07D030F9AD
:1025E00011600CF1010C42440CF0FF0C92B234F873
:1025F0001180A146B8F1000F05D034F911507F1CAD
:102600004344FFB29BB2491CC9B20A29E2D3BCF1D0
:10261000000F01D0B2FBFCF20FB1B3FBF7F30021C6
:10262000BCF1000F14D030F81140B4F1000E0FD0FF
:10263000DFF81C81A2EB0E0408F12808DE4528F81B
:10264000114001DD30F911B0B64501DA30F9116001
:10265000A7B139F81180B8F1000E0FD0DFF8F08083
:10266000A3EB0E0408F13C08D64528F8114001DD23
:1026700039F911A0AE4501DA39F91150491CC9B236
:102680000A29CDD35DA16648FDF736FE6448FDF703
:10269000B7FE634982B24FF47A773B46A1F16000FE
:1026A000FFF7AEF95E483B4602223FA16038FFF7D4
:1026B000A7F9AAEB0503ABEB06025AA15848FDF7B0
:1026C0001BFE5748FDF79CFE554982B23B46A1F1DF
:1026D0006000FFF795F952483B46022232A160386C
:1026E000FFF78EF9194C57A14D48B4F90430B4F9ED
:1026F0000220FDF701FE4A48FDF782FE484982B2FA
:102700003B46A1F16000FFF77BF945483B460222BA
:1027100025A16038FFF774F952A14148226AFDF7FC
:10272000EBFD3F48FDF76CFE3D4982B23B46A1F10F
:102730006000FFF765F903B03B46BDE8F04F38484D
:10274000022219A16038FFF75BB9000010000020D9
:102750004400002054313A2564207C2054323A252C
:1027600064207C2054333A2564207C2054343A255C
:1027700064207C2054353A25640000000D000000E0
:1027800054363A2564207C2054373A2564207C2036
:1027900054383A2564207C2054393A2564207C2022
:1027A0005431303A256400000D0A000048313A25C2
:1027B00064207C2048323A2564207C2048333A2526
:1027C00064207C2048343A2564207C2048353A2512
:1027D0006420000048363A2564207C2048373A259A
:1027E00064207C2048383A2564207C2048393A25EA
:1027F00064207C204831303A25642000417665729F
:102800006167655F54656D3A256420202020202093
:10281000417665726167655F48756D693A25640048
:102820008C010020546D61782D546D696E3A2564D9
:10283000202020202020486D61782D486D696E3A57
:10284000256400004D61737465725F54656D3A25AF
:102850006420202020202048756D695F54656D3A02
:10286000256400002D2D2D2D2D2D2D2D2D2D2D2DC3
:102870002D2D2D2D2D2D2D2D2D2D2D25642D2D2D59
:102880002D2D2D2D2D2D2D2D2D2D2D2D2D2D2D2D78
:102890002D2D2D2D2D000000784C86B004F18806DA
:1028A0003460FEF7FBFAFFF747FCFFF74DFBA4F19E
:1028B00054007349016073490025C0E901154FF4C4
:1028C0008041C0E9035145618561C5610562FEF73C
:1028D0005DF808B172B6FEE768486B4944304FF4C2
:1028E000E1380160C0E901850C27C560C0E90457E3
:1028F0008561C561FEF7BEFF08B172B6FEE76348A9
:102900002060C4E90185E560C4E90457A5615B481E
:10291000E561FEF7AFFF08B172B6FEE70122311D97
:102920003068FFF73FF800224FF480515848FEF717
:1029300021F8524E574CA43E06F11407FEF720F83A
:10294000A169884200D2A561FEF71AF8A169401A70
:10295000616988420ED9FFF797FD4E4960880E31B4
:10296000020A0A704870881C057021794170FEF7D0
:1029700007F8A061FEF704F8E169884200D2E5613A
:10298000FDF7FEFFE169401A642837D9414A3B4808
:10299000121D911E5438FFF78DF86088E1880223DC
:1029A00008446080A088218903220844A08003A8ED
:1029B000019004200090617801A8FFF726FBDFF862
:1029C000D880012202214046FDF7D4FFBDF808203F
:1029D0004FF47A7329480199FFF712F80022022177
:1029E0004046FDF7C7FF6078401CC0B260702328E6
:1029F00001D91A206070FDF7C3FFE061FFF722FBE9
:102A000020701A380A2899D2DFE800F0050A0F145E
:102A1000191E23282D3260893080A08938808DE7E7
:102A200060897080A089788088E76089B080A089FB
:102A3000B88083E76089F080A089F8807EE76089AC
:102A40003081A089388179E760897081A089788197
:102A500074E76089B081A089B8816FE76089F081EF
:102A6000A089F8816AE760893082A089388265E7A9
:102A700060897082A089788260E70000E800002009
:102A800000580040A086010000480040004400407B
:102A900000040240100000200000024010B591EA3E
:102AA000030F48BF83F0004300F14083841A71EBA9
:102AB000030C05D2121943EB0C03001B61EB0C0154
:102AC000DFF824E14FEA1154A4EB135C1EEA430F34
:102AD00018BF9EEA445F73D023EA0E03DCF1200E98
:102AE00021EA045143F4801332D322FA0CFE10EB96
:102AF0000E0023FA0CFE41EB0E01CCF1200E03FA7E
:102B00000EFE10EB0E0051F10001B1F5801FCCF16B
:102B1000200E32D201EB045112FA0EF2BDE8104041
:102B200058BF7047401C38BF5FEA420218BF704769
:102B3000002814BF20F0010041F100014FEA4103D9
:102B400013F5001F38BF7047A1F1C04100F0E0BA93
:102B5000012A43EB0302ACF1200CDCF11F0E32BF63
:102B60004FF0000E23FA0CF310EB030041EB04517D
:102B7000B4EB115FD0D0A1EB045101F580114908ED
:102B80005FEA300001EB04510ED350F1000038BF72
:102B900012FA0EFE08D1BDE81040C9E7401C38BF4C
:102BA0005FEA4202CAD1C3E7BDE810404FEA4103E1
:102BB00013F5001F38BF7047A1F1C04100F0A8BA5B
:102BC0009EEA445F08D011EA5E0FBDE8104004BFE2
:102BD00001F0004100207047BDE8104070B500F0E2
:102BE00049FA00BF64FBBE3E0000E0FF2DE9C04192
:102BF00030B4DFF8A0C23CEA111418BF3CEA131449
:102C000000F0EC8081EA03051CEA111444EAD57453
:102C100018BF1CEA131500F0C780A4EB05044FF0A1
:102C2000004545EAC12145EAC32341EA505143EA40
:102C3000525304F17F74994204F500344FEAC020E6
:102C40004FEAC22208BF904200F09C804FEA136511
:102C50000FF24016765D4FEA134506FB05F7C7F104
:102C6000807706FB07F74FEAD737A7FB0368764262
:102C7000C8F58038A7FB06CE38BFA8F1010807FBCE
:102C800008E64FF0000EA6FB028CE6FB03CEDCF15B
:102C9000000CCEF1004E38BFAEF1010EA6FB0C5871
:102CA0004FF000074FF00005E6FB0E87A1FB08C6BA
:102CB000A0FB07CE16EB0E0645F10005E1FB07650C
:102CC00015F1E04E7EBFA4F580345FEA46066D4103
:102CD00016F1800745F100054FEA17274FEA06660F
:102CE00047EA0567A6F1DE46B6F1805F4FEA152593
:102CF0001FD9384624F0010C05EBC471BCF1FE6FFE
:102D000001EB0C1102D8F0BCBDE8008124425CBF8D
:102D100001F5801E9EEAC47F02D4F0BCBDE80081AC
:102D2000244238D4F0BCA1F1C041BDE8004100F01C
:102D3000EFB94FEAD22242EA43524FEAD323A7FB2C
:102D400002864FEAD02040EA415007FB03661EEAA4
:102D50000E0F4FEAD12105FB026658BFA6EB0056C5
:102D6000B6EB00564FEA520E4EEAC37E18EB0E0E3B
:102D700056EB530EBDD518EB02085E417F1C55F192
:102D80000005B6E74FF480154FF000074FF000063E
:102D90004FF00008ADE7F0BC4FF0000001F1C0417A
:102DA00001F00041BDE8008111EA0C1F0CEA131587
:102DB00000D00CE013EA0C1F00F025804FF000005B
:102DC000F0BC81EA030101F00041BDE80081F0BCE4
:102DD000BDE8004181EA030100F09AB9F0BCBDE80A
:102DE000004170B500F046F9097EFC3E00F007B8DE
:102DF00081EA03014FF0000001F00041704781EAD1
:102E0000030100F085B9F0BCBDE800414FF00000BF
:102E100021497047FFFDFBF9F7F5F4F2F0EEEDEB19
:102E2000E9E8E6E4E3E1E0DEDDDBDAD8D7D5D4D3C8
:102E3000D1D0CFCDCCCBCAC8C7C6C5C4C2C1C0BF14
:102E4000BEBDBCBBBAB9B8B7B6B5B4B3B2B1B0AF1A
:102E5000AEADACABAAA9A8A8A7A6A5A4A3A3A2A1FE
:102E6000A09F9F9E9D9C9C9B9A99999897979695B9
:102E700095949393929191908F8F8E8E8D8C8C8B55
:102E80008B8A8989888887878685858484838382DD
:102E9000828181800000FF070000F87F4FEA410334
:102EA0004FEA5353A3F58063D3F11E03C8BFD3F198
:102EB000210C0CDD4FF0004242EAC12242EA50529E
:102EC00032FA03FC8CEAE17CACEBE1707047102B2A
:102ED000C4BF0020704703F5787CBCF1FF3F04D0ED
:102EE0006FF0004282EA2100704770B500F0C2F82E
:102EF0004992248000207047F2E7B0FA80F310FA7C
:102F000003F10AD0C3F11D0303F580634FEA41507A
:102F10004FEA035202EBD12170474FF00000704797
:102F2000DFF848C170B51CEA111E1EBF1CEA13155C
:102F30009EEA0C0F95EA0C0F00F06F8081EA030403
:102F400023EA4C134EEAD47E21EA4C1141F480115D
:102F500043F48013AE44A1FB024CA0FB0365AEF129
:102F60007F7E361955EB0C05A1FB034C4CF1000399
:102F7000A0FB021C16EB0C06654153F1000309424D
:102F800018BF46F0010613F4007F0BD14FEA03315E
:102F90004FEA0530340341EA155140EA16506FF00C
:102FA00003020AE04FEAC3214FEAC520F40241EAD6
:102FB000555140EA56506FF0020202EB2E4201EBEF
:102FC000025585EACE710AD05FEA440C18BF24F09E
:102FD000004450F1000041F1000120EAD47040F2B9
:102FE000FE7C624500D270BDA84214BF4FF0804401
:102FF0004FF04044002E08BF0024BEF1806FA8BFF0
:10300000A1F1C041BDE8704080F282804FF0000025
:1030100001F1C04101F0004170479EEA0C0F0CEA3B
:10302000131518BF95EA0C0F06D04FF0000081EA87
:10303000030E0EF0004170BD00F01CF88900013E47
:1030400000F007B800F009B84FEA430C5FEA5C5C97
:1030500008D081EA030100F05BB84FEA410C5FEA57
:103060005C5CF6D14FF00000014970470000FF079B
:103070000000F87F0EF1020E2EF0030E5EF8046BD6
:10308000364205D4012A43EB030515F5001F12D87B
:10309000012841EB010C1CF5001F0CD80ED14FEAA2
:1030A000D17C15F5001F0CEB4C0C0CF1020C08BF89
:1030B0004CEBD37C04E04FF0080C01E04FEAD37CEA
:1030C0000CEB4C0526FA05F606F00706B6F1040CE3
:1030D00006D20EEB860CBDE870404CF0010C604748
:1030E000DFE80CF0090B02024FF000414FF0000046
:1030F000A1F5002170BD19461046012851EB0104CD
:1031000018BFD4F5001484BF002001F0004170BD49
:103110000808A0F500114FEA3101704710B591EA97
:10312000030F48BF83F000433FF5C0AC841A71EB36
:10313000030C07D212198CF0004C43EB0C03001B5C
:1031400061EB0C01DFF8A4E14FEA1154A4EB135C2E
:103150001EEA430F18BF9EEA445F00F0B08023EAE6
:103160006E03524221EA0451C3EB6E0338BF5B1E6B
:10317000DCF1200E25D322FA0CFE10EB0E0043FAF0
:103180000CFE41EB0E01CCF1200E03FA0EFE10EB0B
:103190000E0051F10001CCF1200E29D412FA0EF2EA
:1031A00001EB0451BDE8104058BF7047401C1CBFE4
:1031B000B2F1004F704700280CBF491C20F00100FD
:1031C000704712EB020E43EB030218BF4FF0010EE3
:1031D0004EEA4202ACF1200CDCF11E0E54D943FA47
:1031E0000CFE10EB0E0051F1FF31CCF11E0ED5D5C7
:1031F0000EF1010E12FA0EFE404141EB010101EB0E
:10320000445C5FEA5C5C10D910EBDE7001EB0451AA
:1032100038BFBEF1004FBDE8104018BF704700280E
:103220000CBF491C20F00100704730D24FEAD42C6B
:1032300011F5001124F400641BD0B1FA81F20B3AAD
:10324000A41AA41ED2F12003914030FA03F31943CB
:10325000904001EBCC71002C01EB0451BDE8104013
:10326000A8BF704701F1C0414FF0000001F00041DC
:103270007047B0FA80F310FA03F100D110BDE41AE0
:10328000173C4805C90AE4E701EB045110BD491099
:1032900001EB0451BDE810404FEA300002E04FF06E
:1032A000000170474A0008BF0042F8D0B2F5001F85
:1032B00028BF704701F000414FF0000070479EEAC0
:1032C000445F07D011EA5E0FBDE8104004BF002143
:1032D00000207047BDE8104070B5FFF7CBFE00BF7F
:1032E00040DFF63E83F00041104670470000E0FFEB
:1032F000030406080C101820300000000000000035
:10330000000102030406070809000000000102038F
:1033100004000000343300080000002044000000D6
:10332000600100087833000844000020DC0700003A
:103330007C01000800000000000000000000000008
:1033400000000000001A0000000000000000000063
:103350000000000000000000B80B000000000000AA
:10336000000000000000000010000000010000004C
:083370000000000068FF1F00CF
:0400000508000125C9
:00000001FF
