:020000040800F2
:100000002806002039010008B92F000865270008DC
:100010007D2E0008590700088D35000800000000FB
:10002000000000000000000000000000693000082F
:10003000E107000800000000BD2F00086B30000839
:100040005301000853010008530100085301000840
:100050005301000853010008530100085301000830
:100060005301000853010008530100085301000820
:100070005301000853010008530100085301000810
:100080005301000853010008530100085301000800
:1000900053010008530100085301000853010008F0
:1000A000000000005301000853010008530100083C
:1000B00053010008530100085301000853010008D0
:1000C00053010008530100085301000853010008C0
:1000D00053010008530100086D3500087D35000804
:1000E00053010008530100085301000853010008A0
:1000F00053010008000000005301000853010008EC
:100100000000000000000000530100085301000837
:1001100053010008530100085301000800000000CB
:1001200053010008DFF80CD000F0BAFA004800478D
:10013000F93B00082806002006488047064800478B
:10014000FEE7FEE7FEE7FEE7FEE7FEE7FEE7FEE787
:10015000FEE7FEE7E9300008250100082DE9F05F21
:100160000546002092469B46884606468146402426
:100170001BE0284641464746224600F012FA534605
:100180005A46C01A914110D311461846224600F033
:10019000F9F92D1A67EB01084F462246012000218C
:1001A00000F0F0F917EB00094E41201EA4F1010404
:1001B000DFDC484631462A464346BDE8F09FD2B2CE
:1001C00001E000F8012B491EFBD270470022F6E740
:1001D00010B513460A4604461946FFF7F0FF2046BD
:1001E00010BD421C10F8011B0029FBD1801A70477A
:1001F0002DE9FE4F804681EA0300C00F0C460090B7
:1002000021F0004123F00045B8EB0200A94105D2DE
:100210004046214690461C460B46024623F00040CD
:10022000104347D0270DC7F30A00C3F30A510290C9
:10023000401A019040286BDAC3F3130040F4801B8E
:100240000098924620B10023D2EB030A63EB0B0B1C
:1002500001985946C0F14002504600F093F9064615
:100260000D4650465946019A00F0ABF910EB0800D4
:100270006141002487EA115284EAE7731A4340D0AF
:10028000009A62B3019A012A4FEA075215DC001B5B
:1002900061EB02014FF0004202EA0752CDE9004251
:1002A000001C41F5801132462B4600F0ABF903B03B
:1002B000BDE8F08F40462146F9E7001B61EB0201E3
:1002C000001C41F5801300185B412018A2F50017AF
:1002D00047EB030140EAD570B6196D4111E06D0896
:1002E0004FEA360645EAC0754FEA0752001B61EB3C
:1002F0000201001C41F5801149084FEA3000001945
:10030000514132462B4603B0BDE8F04F00F06BB9C7
:100310000098012240000023D0EB020263EBE0735F
:10032000009821464FEAE074B8EB000061EB04014D
:10033000E9E783F000435BE781F0004158E72DE9EE
:10034000FE4F81EA030404F0004421F000410094D0
:100350004FF0000B23F0004350EA01045ED052EA54
:1003600003045BD0C3F30A54C1F30A552C44A4F22E
:10037000F3340194A0FB0254C1F3130141F4801142
:10038000C3F3130343F4801301FB024400FB034E49
:10039000840A970A44EA815447EA8357A4FB076812
:1003A00002958D0A05FB07854FEA932C04FB0C543C
:1003B0002705029D4FEA065847EA1637B5EB0805B0
:1003C0006EEB070C870E920E47EA811742EA831202
:1003D000A7FB0201B6EB0B0164EB00042B0D43EA13
:1003E0000C335E1844EB1C50DA465146E7FB020121
:1003F000C5F313044FEA0B3343EA14534FEA0432B4
:10040000019C43EA0603A4F10C040294009CCDE98C
:1004100000B400F0F7F803B0BDE8F08F002001460B
:10042000F9E72DE9F04D81EA030404F0004B21F0D7
:10043000004514464FF0000A23F0004150EA05023F
:1004400020D054EA01021DD0C5F30A570246C5F375
:100450001303C1F31300C1F30A5640F4801543F4AB
:100460008013A7EB0608101BD64608F2FD3873EB85
:10047000050002D308F1010801E092185B41B8F1D0
:10048000000F03DA00200146BDE8F08D00204FF494
:100490008011064684460EE0171B73EB050705D353
:1004A000121B63EB050306434CEA010C49084FEAB3
:1004B000300092185B4150EA0107EDD152EA030087
:1004C00012D082EA040083EA0501084305D0101B1C
:1004D000AB4106D20122002306E000224FF0004388
:1004E00002E06FF0010253101AEB06004CEB0851CA
:1004F00010EB0A0041EB0B01BDE8F04D00F073B8C2
:100500000EB540F2334102910021CDE900110A46B7
:100510000B4600F077F803B000BD70B5C1F30A5286
:1005200001F000450024C1F3130140F2FF3341F410
:1005300080119A4201DA002070BD40F233439A42A2
:10054000A2F2334203DC524200F02BF800E090406C
:100550002C43F1D0404270BD30B50B46014600201F
:100560002022012409E021FA02F59D4205D303FA75
:1005700002F5491B04FA02F52844151EA2F10102F6
:10058000F1DC30BD202A04DB203A00FA02F1002021
:1005900070479140C2F1200320FA03F319439040C1
:1005A0007047202A04DB203A21FA02F0002170472C
:1005B00021FA02F3D040C2F12002914008431946CB
:1005C0007047202A06DBCB17203A41FA02F043EAB3
:1005D000E07306E041FA02F3D040C2F120029140FC
:1005E00008431946704710B5141E73F1000408DA69
:1005F000401C41F1000192185B411A4301D120F0E7
:10060000010010BD2DE9F04D92469B4611B1B1FAA3
:1006100081F202E0B0FA80F220329046FFF7B2FF9A
:1006200004460F4640EA0A0041EA0B0153465A4687
:10063000084313D0114653EA010019D0C8F1400213
:100640005046FFF7AEFF05460E4650465946424615
:10065000FFF798FF084305D0012004E02046394603
:10066000BDE8F08D0020054346EAE0762C43374391
:100670000A986305E40AA0EB08000022FD0A44EA98
:1006800047540A3002D500200146E9E70105101958
:100690006941DDE9084500196941BDE8F04DA2E76F
:1006A000064C074D06E0E06840F0010394E80700BF
:1006B00098471034AC42F6D3FFF738FD783E000877
:1006C000983E000838B504460025002000902068B8
:1006D0000068C0F3801088BB2068806840F001008B
:1006E000216888601A4800681A49B0FBF1F000EBF5
:1006F0004000009002E00098401E00900098002802
:10070000F9D100F011FC054619E000F00DFC401B8A
:10071000022814D920680068C0F3801078B9E06C12
:1007200040F01000E064206D40F00100206500BF43
:10073000002084F8480000BF012038BD05E0206893
:100740000068C0F380100028DFD00020F5E700002B
:100750006800002040420F0000BFFEE770B504466D
:100760000025E08800282FDD1A48008848B900F0ED
:10077000DBFB19490860012016490880E088174909
:10078000088000F0D1FB14490968884202D2002099
:100790001149086000F0C8FB0F490968401A012898
:1007A00015D90C480088012811D1E0880B49098827
:1007B000884201D101250AE000F0B6FB0649086035
:1007C000E0880649088002E000200249088068B2FB
:1007D00070BD00000C000020080000200400002074
:1007E000704710B5C2880021C180017100BF04E0CC
:1007F000002400F108035C54491C9142F8DB10BD51
:1008000072B600BFFEE7000038B5024600230020A4
:10081000009000BF92F84800012801D1022038BDA5
:10082000012082F8480000BF4868072812D21068EB
:10083000006C0C79641E04EB84051F24AC40A043BB
:100840000D796D1E05EB85050C68AC4020431468DE
:10085000206453E048680D2812D21068C06B0C79F0
:10086000E41F04EB84051F24AC40A0430D79ED1F69
:1008700005EB85050C68AC4020431468E0633DE05F
:100880004868132812D21068806B0C790D3C04EB79
:1008900084051F24AC40A0430D790D3D05EB850573
:1008A0000C68AC4020431468A06327E0486819280E
:1008B00012D21068406B0C79133C04EB84051F24A2
:1008C000AC40A0430D79133D05EB85050C68AC40A9
:1008D00020431468606311E01068006B0C79193CC8
:1008E00004EB84051F24AC40A0430D79193D05EBB2
:1008F00085050C68AC4020431468206308680A280A
:1009000010D2106840690C7804EB44050724AC4011
:10091000A0430D7805EB45058C68AC402043146876
:1009200060612CE00868142812D2106800690C7805
:100930000A3C04EB44050724AC40A0430D780A3D73
:1009400005EB45058C68AC4020431468206116E037
:1009500008681A2812D81068C0680C78143C04EB98
:1009600044050724AC40A0430D78143D05EB450534
:100970008C68AC4020431468E06000E000BF086869
:10098000102802D0086811281DD11248006800F410
:100990000000C0B90F48006840F400000D4C206012
:1009A000086810280FD10C4800680C4CB0FBF4F01C
:1009B00000EB80004000009002E00098401E009094
:1009C00000980028F9D100BF002082F8480000BF3D
:1009D000184624E7042701406800002040420F0029
:1009E000F8B504460027002600250CB90120F8BD03
:1009F000206918B194F82C0000B100BF606B10287A
:100A000000D000BFE06CA0B90020206584F8480049
:100A100000BF6448006840F0010062490860084671
:100A2000006800F00100009000BF00BF204600F009
:100A3000C3F8E06C00F01000002878D1E06C20F4DE
:100A4000885040F00200E0645748006820F44030CD
:100A500061680843544908606169E068084394F894
:100A60003C104FF4007292FAA2F2B2FA82F2914074
:100A70000843216A084394F82410022292FAA2F251
:100A8000B2FA82F2914008430543606B102803D00C
:100A9000D4E90D010843054320680068C0F38010C5
:100AA000A0BBA0690543E169A06808432169B1F5CD
:100AB000807F02D02169012902D14FF4807100E0CA
:100AC00000210843064394F82C00012817D194F81C
:100AD000240060B9206B401E4FF4604191FAA1F1EF
:100AE000B1FA81F1884040F40060064307E0E06C11
:100AF00040F02000E064206D40F001002065206897
:100B000040682A490840304321684860206880686E
:100B1000274908402843216888602069B0F5807F14
:100B200002D02069012803D14FF4807001E035E044
:100B30000020B0F5807F10D12068006B20F0F871A4
:100B4000A06A401E4FF0F87292FAA2F2B2FA82F254
:100B5000904001432068016305E02068006B20F0AD
:100B6000F870216808632068806812490840A8422C
:100B700008D100202065E06C20F0020040F0010068
:100B8000E0640CE0E06C20F0020040F01000E06453
:100B9000206D40F001002065012700E00127384664
:100BA00025E700002038024004270140FF16FCFC26
:100BB00089F1FFC0FEFF80BF08B5094A0168914274
:100BC0000DD100BF0749096841F40071054A116061
:100BD0001146096801F40071009100BF00BF08BD13
:100BE000002401402038024070B50446002500BFB3
:100BF00094F84800012801D1022070BD012084F83A
:100C0000480000BF2046FFF75DFD054695BBE06C40
:100C100040F20161884340F48070E06420684068DD
:100C200000F4806028B1E06C20F4005040F4805063
:100C3000E064E06C00F48050B0F5805F04D1206D7A
:100C400020F00600206501E00020206500BF0020A4
:100C500084F8480000BF6FF0220021680860206817
:100C6000806800F0405028B92068806840F08040DB
:100C7000216888602846C0E70146002291F82100DB
:100C8000022808D00420886300BF002081F82000DB
:100C900000BF012070470868006820F00E000B6854
:100CA00018600868006820F001000B68186091F86F
:100CB000400000F01C0301209840CB6B58600120DD
:100CC00081F8210000BF002081F8200000BF1046FD
:100CD000E0E770B50446002594F82100022803D00F
:100CE0000420A063012520E02068006820F00E00A9
:100CF000216808602068006820F001002168086011
:100D000094F8400000F01C0101208840E16B48602D
:100D1000012084F8210000BF002084F8200000BFDB
:100D2000606B10B12046616B8847284670BD00009B
:100D300070B5044600F0F8F806462546681C10B168
:100D400004480068054400BF00F0EEF8801BA8428C
:100D5000FAD370BD6400002078B503460A4600212E
:100D600000240020C4E001268E40156805EA060430
:100D7000002C72D0157905F00305012D04D01579EA
:100D800005F00305022D13D198684E000325B540E8
:100D9000A8434E00D568B54028439860586801259F
:100DA0008D40A8431579C5F300158D402843586040
:100DB000157905F00305032D09D0D8684E000325E9
:100DC000B540A8434E009568B5402843D8601579D2
:100DD00005F00305022D13D1CE0803F1200555F8C7
:100DE00026004D07EE0E0F25B540A8434E07F60E20
:100DF0001569B5402843CE0803F1200545F82600C3
:100E000018684E000325B540A843157905F0030581
:100E10004E00B54028431860556805F44035002D54
:100E200065D000BF354D2D6845F00105334E356066
:100E300035462D6805F00105009500BF00BF304D17
:100E40008E0855F826008D072E0F0F25B540A843B4
:100E50002C4DAB4202D1002515E048E02A4DAB42B3
:100E600001D101250FE0294DAB4201D102250AE055
:100E7000274DAB4201D1032505E0264DAB4201D100
:100E8000042500E005258E07360FB54028431C4D8C
:100E90008E0845F82600204D2868A043556805F4C3
:100EA000801505B120431C4D28602D1D2868A043E6
:100EB000556805F4001505B12043174D2D1D286018
:100EC000154D2D1F2868A043556805F4003505B160
:100ED0002043114D2D1F28602D1F2868A043556801
:100EE00005F4803505B120430B4D083D2860491CB1
:100EF0001568CD40002D7FF436AF78BD2038024014
:100F000008000140000002400004024000080240C6
:100F1000000C024000100240080401400AB1816147
:100F200001E00B04836170470148006870470000CE
:100F30005C00002070B504460CB9012070BD94F827
:100F40003D0028B9002084F83C00204600F018FB42
:100F5000242084F83D002068006820F0010021680A
:100F600008602068006840F400402168086020683C
:100F7000006820F400402168086000F02FFD05465D
:100F80005C496068884206D85B48854201D20120EE
:100F900007E0002005E05948854201D2012000E029
:100FA0000020012800D1C9E75548B5FBF0F62068BC
:100FB000406820F03F003043216848604D49606838
:100FC000884201D8701C07E04FF4967070434FF4CC
:100FD0007A71B0FBF1F0401C2168096A21F03F01F1
:100FE00008432168086243496068884214D8681E33
:100FF00061684900B0FBF1F0401CC0F30B0004280D
:1010000001D204203DE0681E61684900B0FBF1F0A8
:10101000401CC0F30B0034E0A06838B9681E61685A
:1010200001EB4101B0FBF1F0401C0AE0681E616871
:1010300001EBC10202EB0111B0FBF1F0401C40F4E6
:101040008040C0F30B0008B901201AE0A06848B93D
:10105000681E616801EB4101B0FBF1F0401CC0F378
:101060000B000CE0681E616801EBC10202EB01118C
:10107000B0FBF1F0401CC0F30B0040F4804040F4A2
:1010800000402168C9694CF6FF729143084321680A
:10109000C861D4E9070108432168096821F0C0014B
:1010A000084321680860D4E903100843216889686F
:1010B00048F2FF329143084321688860D4E9050172
:1010C00008432168C96821F0FF0108432168C8600E
:1010D0002068006840F0010021680860002020645A
:1010E000202084F83D000020206384F83E0000BFEB
:1010F00024E70000A086010080841E0000093D0056
:1011000040420F002DE9F8430446894617469846A9
:10111000089EFFF709FF054694F83D0020287DD181
:1011200019230122B7492046009501F06CFC10B14B
:101130000220BDE8F88300BF94F83C00012801D1EB
:101140000220F6E7012084F83C0000BF2068006818
:1011500000F0010028B92068006840F00100216813
:1011600008602068006820F4006021680860222080
:1011700084F83D00102084F83E000020206467625F
:10118000A4F82A80608D20859F48E0622B46324675
:101190004946204601F008FB08B10120C9E7208D2F
:1011A00088B900BF00200090206840690090206846
:1011B0008069009000BF00BF2068006840F40070A4
:1011C0002168086047E0208D012817D12068006859
:1011D00020F480602168086000BF00200090206833
:1011E0004069009020688069009000BF00BF2068BF
:1011F000006840F40070216808602CE0208D02280F
:1012000018D12068006820F4806021680860206898
:10121000006840F400602168086000E0EFE000BF73
:10122000002000902068406900902068806900904C
:1012300000BF10E02068006840F48060216808600A
:1012400000BF0020009020684069009020688069FD
:10125000009000BF00BFC3E0208D03287ED8208D02
:10126000012815D12A463146204601F0A8FC08B1D4
:1012700001205EE720680069616A0870606A401CAE
:101280006062208D401E2085608D401E6085A7E035
:10129000208D02282AD1334600225C492046009541
:1012A00001F0B1FB08B1012043E72068006840F479
:1012B00000702168086020680069616A0870606ACF
:1012C000401C6062208D401E2085608D401E608520
:1012D00020680069616A0870606A401C6062208D45
:1012E000401E2085608D401E608579E033460022D7
:1012F00046492046009501F086FB08B1012018E719
:101300002068006820F48060216808602068006917
:10131000616A0870606A401C6062208D401E2085F2
:10132000608D401E60853346002238492046009576
:1013300001F069FB08B10120FBE62068006840F479
:1013400000702168086020680069616A0870606A3E
:10135000401C6062208D401E208500E010E0608D02
:10136000401E608520680069616A0870606A401CE0
:101370006062208D401E2085608D401E60852FE0BC
:101380002A463146204601F01AFC08B10120D0E679
:1013900020680069616A0870606A401C6062208D84
:1013A000401E2085608D401E608520684069C0F326
:1013B0008000A8B1208D032805D12068006820F4A2
:1013C00080602168086020680069616A0870606A4E
:1013D000401C6062208D401E2085608D401E60850F
:1013E000208D00287FF438AF202084F83D000020B5
:1013F00084F83E0000BF84F83C0000BF99E602205C
:1014000097E60000020010000000FFFF040001004A
:101410002DE9F8430446894616461F46DDF820802C
:10142000FFF782FD054694F83D0020287ED1192360
:10143000012251492046009501F0E5FA10B1022041
:10144000BDE8F88300BF94F83C00012801D10220D8
:10145000F6E7012084F83C0000BF2068006800F037
:10146000010028B92068006840F001002168086088
:101470002068006820F4006021680860212084F85A
:101480003D00102084F83E000020206466626785DD
:10149000608D20853948E0622B4642464946204609
:1014A00001F01EFA08B10120CAE700BF0020009039
:1014B00020684069009020688069009000BF00BFEC
:1014C00044E02A464146204601F0BEFB50B1206C64
:1014D000042805D12068006840F400702168086085
:1014E0000120ADE7606A007821680861606A401CED
:1014F0006062608D401E6085208D401E20852068C2
:101500004069C0F3800070B1208D60B1606A0078DE
:1015100021680861606A401C6062608D401E6085C1
:10152000208D401E20852A46414600E022E02046CC
:1015300001F036FA50B1206C042805D1206800680B
:1015400040F4007021680860012079E7208D0028B0
:10155000B7D12068006840F400702168086020203E
:1015600084F83D00002084F83E0000BF84F83C0071
:1015700000BF65E7022063E7020010000000FFFFE4
:1015800010B586B00446142101A8FEF71FFE1949C4
:10159000206888422CD100BF1748006840F0020044
:1015A000154908600846006800F00200009000BF7E
:1015B00000BF4FF440600190122002900020039081
:1015C000032004900420059001A90C48FFF7C4FBF8
:1015D00000BF09480830006840F48000064908311F
:1015E00008600846006800F48000009000BF00BF5B
:1015F00006B010BD005800401C38024000040240F4
:1016000003480068034909680844014908607047B5
:101610005C0000206400002010B50024032000F0CE
:10162000B3F80F2000F008F808B1012401E000F041
:101630002FF8204610BD000070B504460025114863
:101640000068D8B10F4800684FF47A71B1FBF0F030
:101650000D490968B1FBF0F6304600F018FD58B9A5
:10166000102C07D200222146501E00F04FF80748E8
:10167000046004E0012502E0012500E00125284680
:1016800070BD0000640000206800002060000020A1
:1016900008B500BF1448006840F0004012490860D7
:1016A0000846006800F00040009000BF00BF00BF87
:1016B000081F006840F00100091F08600846006824
:1016C00000F00100009000BF00BF00BF081D0068CF
:1016D00040F08050091D08600846006800F0805006
:1016E000009000BF00BF08BD2438024001460846F4
:1016F000002809DB00F01F0301229A4043099B00E8
:1017000003F1E023C3F8002100BF70472DE9F05F2B
:1017100080460D461646002701F04EFF0746394623
:101720002A46334601F00700C0F1070ABAF1040F58
:1017300002D94FF0040A01E0C0F1070AD14600F1D6
:10174000040ABAF1070F02D24FF0000A01E0A0F13B
:10175000030AD4464FF0010A0AFA09FAAAF1010A6B
:101760000AEA020A0AFA0CFA4FF0010B0BFA0CFB18
:10177000ABF1010B0BEA030B4AEA0B04214640468E
:1017800001F022FFBDE8F09F00BF00F00702064B0A
:1017900019684FF6FF031940044B0B4343EA02213B
:1017A000014B196000BF70470CED00E00000FA0526
:1017B0002DE9F04104460D4614B90120BDE8F08141
:1017C0007E48006800F00100A84218D200BF012D39
:1017D00005D17A48006840F00400784908607748ED
:1017E000006820F0010028437449086000BF0846E3
:1017F000006800F00100A84201D00120DEE7207857
:1018000000F00200022807D16D48006820F0F000C7
:10181000A16808436A490860207800F001000028A8
:101820007FD06068022807D165480838006800F456
:101830000030F8B90120C1E76068032807D160488B
:101840000838006800F00070A0B90120B6E76068B1
:10185000012807D15A480838006800F0020048B94A
:101860000120ABE756480838006800F4007008B95A
:101870000120A3E75248006820F003006168084394
:101880004F490860FFF750FB06466068022810D1F8
:1018900008E0FFF749FB801B41F28831884201D9FB
:1018A00003208BE74648006800F00C000828F0D1C0
:1018B00037E06068032810D108E0FFF735FB801B94
:1018C00041F28831884201D9032077E73C4800681B
:1018D00000F00C000C28F0D123E06068012810D142
:1018E00008E0FFF721FB801B41F28831884201D9D3
:1018F000032063E73248006800F00C000428F0D1B0
:101900000FE008E0FFF710FB801B41F288318842AE
:1019100001D9032052E72A48006800F00C00002893
:10192000F0D12648006800F00100A84218D900BF95
:10193000012D05D12148006840F004001F490860CE
:101940001E48006820F0010028431C49086000BFC1
:101950000846006800F00100A84201D001202DE7F0
:10196000207800F00400042807D11548006820F40E
:10197000E060E168084312490860207800F0080040
:10198000082808D10E48006820F46050216940EA18
:10199000C1000B49086000F041F809490968C1F32A
:1019A0000311084A515CC8400749086007480068AD
:1019B000FFF742FE0746384600E70000003C0240C1
:1019C000083802405D3E00086800002060000020EA
:1019D00001480068704700006800002000B5FFF76C
:1019E000F7FF04490968C1F30221034A515CC8406A
:1019F00000BD0000083802406D3E000800B5FFF74A
:101A0000E7FF04490968C1F3C221034A515CC84099
:101A100000BD0000083802406D3E00082DE9F05F6F
:101A20002248D0F8009009F00C0070B3042804D0CC
:101A3000082804D00C2829D103E01D4D32E01D4DAB
:101A400030E01D48C9F3834110F801A0C9F381506B
:101A5000441C1648006800F4803050B11548A0FBC3
:101A60000A700146224600233846FEF777FB0646F9
:101A700009E00F48A0FB0A700146224600233846C1
:101A8000FEF76CFB064635460CE000E000BF074859
:101A9000001F0068C0F3423B0BF1010001218140AF
:101AA000CD0300BF00BF2846BDE8F09F08380240C4
:101AB0000024F40000366E01543E00082DE9F8437E
:101AC000044614B90120BDE8F883FE48006800F020
:101AD0000C06FC48006800F48037207800F0010014
:101AE000002875D0082E04D00C2E0ED1B7F5803FFB
:101AF0000BD1F4480838006800F40030002867D0A3
:101B00006068002864D10120DDE700BF606801281B
:101B100008D1EC480838006840F48030E9490839B9
:101B200008602DE0606868B9E6480838006820F46D
:101B30008030E449083908600846006820F48020B5
:101B400008601DE0606805280DD1DE48083800688F
:101B500040F48020DB49083908600846006840F4FA
:101B6000803008600CE0D7480838006820F48030E6
:101B7000D449083908600846006820F480200860CD
:101B800000BF606890B1FFF7CFF9054606E0FFF7A8
:101B9000CBF9401B642801D9032094E7C9480838D1
:101BA000006800F400300028F1D011E0FFF7BCF924
:101BB000054606E0FFF7B8F9401B642801D9032069
:101BC00081E7C0480838006800F400300028F1D1EF
:101BD000207800F00200022853D1042E02D00C2EEF
:101BE00017D1B7B9B7480838006800F0020020B133
:101BF000E068012801D0012065E7B248001F0068B5
:101C000020F4F850216940EA0120AE49091F08601C
:101C100037E0E06800B30120AB490860FFF784F9C2
:101C2000054606E0FFF780F9401B022801D9032092
:101C300049E7A4480838006800F002000028F1D005
:101C4000A048001F006820F4F850216940EA0120F4
:101C50009C49091F086014E000209B490860FFF7B9
:101C600063F9054606E0FFF75FF9401B022801D93A
:101C7000032028E793480838006800F00200002895
:101C8000F1D1207800F01000102871D1F6BB8D48FA
:101C90000838006800F4007018B1A06908B9012084
:101CA00011E78849091F206A096801F460418842E8
:101CB00019D9206A01F084F908B1012003E78148AD
:101CC000001F006820F46040216A08437D49091F15
:101CD0000860217F7B48001F006861F31F6079491D
:101CE000091F08601AE07748001F006820F4604070
:101CF000216A08437349091F0860217F7148001F4A
:101D0000006861F31F606F49091F00E020E0086070
:101D1000206A01F055F908B10120D4E60121206ABA
:101D200001EB503101208840C00366490968C1F3C6
:101D30000311664A515CC8406549086065480068FF
:101D4000FFF77AFC8046B8F1000F42D04046BAE671
:101D5000A06948B301205C490862FFF7E5F8054631
:101D600007E0FFF7E1F8401B022802D90320AAE6AA
:101D70002FE054480838006800F400700028F0D0C4
:101D80005048001F006820F46040216A08434D4914
:101D9000091F0860217F4B48001F006861F31F6026
:101DA0004849091F086014E0002047490862FFF70E
:101DB000BBF8054606E0FFF7B7F8401B022801D93B
:101DC000032080E63F480838006800F400700028CF
:101DD000F1D1207800F0080008282CD16069A8B162
:101DE00001203D490860FFF79FF8054606E0FFF730
:101DF0009BF8401B022801D9032064E631482C30AF
:101E0000006800F002000028F1D014E00020324900
:101E10000860FFF789F8054606E0FFF785F8401BE4
:101E2000022801D903204EE626482C30006800F035
:101E300002000028F1D1207800F0040004286ED1BF
:101E40004FF000091F481C30006800F0805088B92E
:101E500000BF1C481C30006840F0805019491C31FC
:101E600008600846006800F08050009000BF00BF86
:101E70004FF001091948006800F48070B0B91748A4
:101E8000006840F4807015490860FFF74DF805467A
:101E900006E0FFF749F8401B642801D9032012E649
:101EA0000E48006800F480700028F2D000BFA068DF
:101EB000012817D103482C30006840F48070014994
:101EC0002C310DE008380240000047425D3E00081A
:101ED000680000206000002080064742007000403B
:101EE000086028E0A06858B96648006820F480704F
:101EF000644908600846006820F4806008601AE0C1
:101F0000A06805280CD15F48006840F480605D49F6
:101F100008600846006840F4807008600BE040E00C
:101F20005848006820F480705649086008460068E8
:101F300020F48060086000BFA06898B1FEF7F4FF4D
:101F4000054608E0FEF7F0FF401B41F28831884269
:101F500001D90320B7E54B48006800F40070002861
:101F6000F0D012E0FEF7E0FF054608E0FEF7DCFFE8
:101F7000401B41F28831884201D90320A3E5414842
:101F8000006800F400700028F0D1B9F1010F07D10A
:101F90003C481038006820F080503A4910390860F9
:101FA00000BF606AA8B30C2E52D0606A022839D1F3
:101FB000002035490866FEF7B7FF054606E0FEF744
:101FC000B3FF401B022801D903207CE52D4834389B
:101FD000006800F000700028F1D1D4E90A0108433C
:101FE000216B084327492C39096821F47D010843F6
:101FF00024492C390860012023490866FEF794FF24
:10200000054607E0FEF790FF401B022802D9032097
:1020100059E535E01B483438006800F000700028AE
:10202000F0D02DE0002018490866FEF77DFF054638
:1020300006E0FEF779FF401B022801D9032042E5A4
:1020400010483438006800F000700028F1D117E023
:10205000606A012800D136E50A482C38076807F481
:102060008031A06A814209D107F47011E06A81428F
:1020700004D107F44001206B814201D0012022E508
:10208000002020E53438024000004742704770B518
:1020900004462546681EB0F1807F01D301200FE081
:1020A000681E4FF0E02148610F214FF0FF3001F032
:1020B0008BFA00204FF0E0218861072008610020A2
:1020C00070BD10B5FFF7E2FF10BD7047704700000C
:1020D0002DE9F84F0446206805682068C668206826
:1020E00047694FF00009CA4605F00F09B9F1000F22
:1020F0000AD105F0200038B106F0200020B12046BA
:1021000001F043F8BDE8F88FB9F1000F7CD007F07B
:10211000010018B906F49070002875D005F0010090
:1021200030B106F4807018B1606C40F0010060645A
:1021300005F0040030B107F0010018B1606C40F008
:102140000200606405F0020030B107F0010018B130
:10215000606C40F00400606405F0080048B106F0CF
:10216000200010B907F0010018B1606C40F00800C1
:102170006064606C002846D005F0200028B106F0AD
:10218000200010B1204601F000F820684069C0F33B
:10219000801A606C00F0080010B9BAF1000F2DD061
:1021A000204600F0ACFF2068406900F04000402865
:1021B00020D100BF00BF2168143151E8001F21F079
:1021C00040002168143141E80002002AF3D100BF29
:1021D000E06B50B17748E16B4863E06BFEF779FD47
:1021E00088B1E06B416B88470DE02046FFF76EFF3A
:1021F00009E009E02046FFF769FF04E02046FFF709
:1022000065FF002060647DE7206B012877D105F031
:102210001000002873D006F010000028FAD000BF8C
:1022200000200090206800680090206840680090BE
:1022300000BF00BF2068406900F0400040285FD127
:10224000E06B006840681FFA80F8B8F1000F55D0C5
:10225000A08D404552DDA4F82E80E06B80692028D7
:1022600043D000BF00BF21680C3151E8001F21F4AA
:10227000807021680C3141E80002002AF3D100BFD0
:1022800000BF00BF2168143151E8001F21F0010098
:102290002168143141E80002002AF3D100BF00BFD9
:1022A00000BF2168143151E8001F21F0400021686F
:1022B000143141E80002002AF3D100BF202084F845
:1022C00042000020206300BF00BF21680C3151E8AC
:1022D000001F21F0100021680C3141E80002002AA3
:1022E000F3D100BFE06BFEF7C7FC02206063A08D56
:1022F000E28D801A81B22046FFF7E7FE02E742E056
:10230000A08DE18D401A1FFA80F8E08DD0B3B8F1AE
:10231000000F37D000BF00BF21680C3151E8001F0B
:1023200021F4907021680C3141E80002002AF3D1B9
:1023300000BF00BF00BF2168143151E8001F21F029
:1023400001002168143141E80002002AF3D100BFE6
:10235000202084F842000020206300BF00BF2168D5
:102360000C3151E8001F21F0100021680C3141E8C8
:102370000002002AF3D100BF0220606341462046DC
:10238000FFF7A3FEBEE605F0800030B106F0800046
:1023900018B1204601F070F8B4E605F0400030B105
:1023A00006F0400018B1204600F0DFFEAAE600BFAC
:1023B000A8E60000EB30000810B504460CB9012077
:1023C00010BDA06900B100E000BF94F8410028B939
:1023D000002084F84000204600F02AF8242084F8E9
:1023E00041002068C06820F400502168C860204681
:1023F00000F04AFF2068006920F4904021680861DD
:102400002068406920F02A00216848612068C0687F
:1024100040F400502168C86000206064202084F8E7
:10242000410084F842000020606300BFC8E700005C
:1024300010B586B00446142101A8FDF7C7FE3A493D
:102440002068884234D100BF3848006840F400302A
:10245000364908600846006800F40030009000BF6C
:1024600000BF00BF31480838006840F001002F4924
:10247000083908600846006800F00100009000BFBD
:1024800000BF0C2001900220029001200390032045
:1024900004900720059001A92548FEF75DFC002265
:1024A00011462620FFF732F92620FFF71FF938E002
:1024B00020492068884234D100BF1C48006840F49D
:1024C00080201A4908600846006800F480200090C7
:1024D00000BF00BF00BF15480838006840F0040086
:1024E0001249083908600846006800F004000090AE
:1024F00000BF00BF4FF44060019002200290002016
:102500000390032004900720059001A90A48FEF7D4
:1025100023FC002211462720FFF7F8F82720FFF7B9
:10252000E5F806B010BD0000004400402438024029
:1025300000000240004800400008024070B5044618
:102540000D46164694F8420020280BD105B10EB96D
:10255000012070BD0020206332462946204600F04D
:102560006BFFF6E70220F4E710B504460A4920683D
:10257000096888420ED109480179C288C088401C88
:10258000064BD88003F1080081540122011F024844
:10259000FFF7D4FF10BD0000140100202C00002024
:1025A0002DE9F84F04460E46174699464FF0000AAB
:1025B00094F8410020284AD106B117B90120BDE89E
:1025C000F88F00206064212084F84100FEF7ACFC05
:1025D0008246A784E784A068B0F5805F04D12069B3
:1025E00010B90025B04602E035464FF000081BE068
:1025F0005346002280212046CDF8009000F06CFF69
:1026000008B10320DBE745B9B8F80000C0F30800C3
:102610002168486008F1020803E0287821684860D2
:102620006D1CE08C401EE084E08C0028E0D1534615
:10263000002240212046CDF8009000F04DFF08B167
:102640000320BCE7202084F841000020B7E70220E7
:10265000B5E770472DE9F04F89B083460C46154623
:102660000026002008906420002308AA88210090FA
:102670005846FEF7CDFE002859D13220FEF758FB10
:102680004FF47A70042308AA882100905846FEF778
:1026900039FD0646002E57D19DF821009DF82010E7
:1026A00040EA012A9DF823009DF8221040EA012902
:1026B000CAF30D0A4FEA99095046FDF721FF00229F
:1026C000234BCDE90401FDF7ACFE07460022214B68
:1026D000FDF735FECDE90601FDF71FFF00B22880AA
:1026E0004846FDF70DFF0022194BCDE90001FDF72B
:1026F00098FE0022184BCDE90201FDF720FE0022D2
:10270000164BCDE90401FDF714FE07460022114BDC
:10271000FDF715FECDE90601FDF7FFFE00B22080B2
:102720000F48007810B100200D4908700CE00C48EB
:102730000078032805DA0A480078401C0849087028
:1027400002E0002020802880304609B0BDE8F08FEC
:1027500080FFCF400000594000A06440000044408A
:102760000000002000BFFEE7014608684069C0F392
:102770008020B0B16FF480600A6850610020086367
:10278000202081F83D00002081F83E00086C40F0D8
:102790000400086400BF002081F83C0000BF012055
:1027A00070470020FCE700002DE9F84304460D4681
:1027B00090461E46E76A2068006840F48060216801
:1027C0000860082F04D0012F02D017F5803F06D1F2
:1027D0002068006840F480702168086008E0206B81
:1027E000112805D12068006840F4807021680860D5
:1027F000434600224FF001112046009600F003F9F5
:1028000060B12068006800F48070B0F5807F02D16C
:102810004FF4007020640320BDE8F8832069B0F510
:10282000804F05D1E8B240F001002168086149E01D
:1028300005F44070F02141EAE01021680861334658
:1028400042462649204600F03DF908B10120E3E761
:10285000E8B221680861334642462049891F204674
:1028600000F030F908B10120D6E700BF0020009049
:1028700020684069009020688069009000BF00BF18
:102880002068006840F48070216808604346002298
:102890004FF001112046009600F0B5F858B12068BD
:1028A000006800F48070B0F5807F02D14FF40070B2
:1028B00020640320B0E705F44070F12141EAE01004
:1028C00021680861334642460449891F204600F0CA
:1028D000F9F808B101209FE700209DE708000100FA
:1028E0002DE9F84304460D4617469846E66A082E39
:1028F00004D0012E02D016F5803F06D12068006872
:1029000040F480702168086008E0206B122805D12F
:102910002068006840F48070216808603B4600220F
:102920004FF001112046CDF8008000F06CF860B146
:102930002068006800F48070B0F5807F02D14FF409
:10294000007020640320BDE8F8832069B0F5804F53
:1029500004D105F0FE002168086112E005F4407022
:10296000F02141EAE0102168086143463A460B49EC
:10297000204600F0A7F808B10120E4E7E8B221689A
:10298000086143463A460549891F204600F09AF8F7
:1029900008B10120D7E70020D5E7000008000100BA
:1029A00070B504460D46164625E02046FFF7DCFECE
:1029B00008B1012070BD681CE8B1FEF7B5FA801BB4
:1029C000A84200D8BDB920684069C0F3800090B922
:1029D00000202063202084F83D00002084F83E0081
:1029E000206C40F02000206400BF002084F83C00F0
:1029F00000BF0120DEE720684069C0F380000028A6
:102A0000D3D00020D6E72DE9F04104460D46174605
:102A10001E46DDF8188038E0701CA8B3FEF784FA73
:102A2000A0EB0800B04200D876BBC5F307400128F0
:102A30000AD120684069A9B20840A9B2884201D1F0
:102A400001200BE0002009E020688069A9B208405D
:102A5000A9B2884201D1012000E00020B84214D17F
:102A600000202063202084F83D00002084F83E00F0
:102A7000206C40F02000206400BF002084F83C005F
:102A800000BF0120BDE8F081FFE7C5F30740012842
:102A90000AD120684069A9B20840A9B2884201D190
:102AA00001200BE0002009E020688069A9B20840FD
:102AB000A9B2884201D1012000E00020B842ABD089
:102AC0000020DFE72DE9F04104460D4616461F467B
:102AD00058E020684069C0F38020E8B120680068B1
:102AE00040F40070216808606FF4806021684861DC
:102AF00000202063202084F83D00002084F83E0060
:102B0000206C40F00400206400BF002084F83C00EA
:102B100000BF0120BDE8F081701C90B3FEF704FAFD
:102B2000C01BB04200D866BBC5F3074001280AD1DC
:102B300020684069A9B20840A9B2884201D10120A9
:102B40000BE0002009E020688069A9B20840A9B222
:102B5000884201D1012000E0002090B900202063CC
:102B6000202084F83D00002084F83E00206C40F0D6
:102B70002000206400BF002084F83C0000BF01203A
:102B8000C8E7FFE7C5F3074001280AD1206840697C
:102B9000A9B20840A9B2884201D101200BE000206F
:102BA00009E020688069A9B20840A9B2884201D131
:102BB000012000E0002000288BD00020AAE770B59B
:102BC00004460D46164637E020684069C0F3001001
:102BD000A0B16FF010002168486100202063202020
:102BE00084F83D00002084F83E00206C206400BF83
:102BF000002084F83C0000BF012070BDFEF794F96E
:102C0000801BA84200D8BDB920684069C0F380107D
:102C100090B900202063202084F83D00002084F833
:102C20003E00206C40F02000206400BF002084F8AB
:102C30003C0000BF0120E0E720684069C0F380103D
:102C40000028C1D00020D8E770B504460D461646CE
:102C500025E02046FFF788FD08B1012070BD681C03
:102C6000E8B1FEF761F9801BA84200D8BDB9206821
:102C70004069C0F3C01090B900202063202084F880
:102C80003D00002084F83E00206C40F020002064CD
:102C900000BF002084F83C0000BF0120DEE7206870
:102CA0004069C0F3C0100028D3D00020D6E7000050
:102CB0000EB5002000900190029017481749086057
:102CC00000204860002115488160C16001614161B8
:102CD0008161C1610162012180F8241081620021BB
:102CE00080F82C10102141630021816380F83C1092
:102CF000FDF776FE08B1FDF783FD1020009001205E
:102D000001900620029069460448FDF77DFD08B158
:102D1000FDF776FD0EBD0000002401406C00002090
:102D200000B587B0142102A8FDF750FA00BF25486E
:102D3000006840F00100234908600846006800F080
:102D40000100019000BF00BF00BF0846006840F0CE
:102D5000020008600846006800F00200019000BF11
:102D600000BF00BF0846006840F004000860084645
:102D7000006800F00400019000BF00BF00220221A3
:102D80001148FEF7CBF800224FF480510F48FEF7B0
:102D9000C5F80220029001200390002004900590C5
:102DA00002A90948FDF7D8FF4FF480500290012096
:102DB000039000200490059002A90448FDF7CCFF81
:102DC00007B000BD1C380240000002400004024071
:102DD00010B50B480B4908600B48486000210948B2
:102DE0008160C1604FF480410161002141618161D6
:102DF000C1610162FEF79EF808B1FDF701FD10BD4B
:102E000000580040C0000020A086010010B50B480B
:102E10000B4908604FF4E1304860002108488160A8
:102E2000C16001610C21416100218161C161FFF735
:102E3000C3FA08B1FDF7E4FC10BD000000440040F7
:102E40001401002010B50B480B4908604FF4E13025
:102E50004860002108488160C16001610C21416126
:102E600000218161C161FFF7A7FA08B1FDF7C8FC35
:102E700010BD0000004800405C01002000BFFEE7DC
:102E800030B502460B464FF6FF70002110E0545C4F
:102E90006040082409E000F0010525B140104AF225
:102EA0000105684000E04010641E002CF3D1491C6D
:102EB0009942ECDB30BD2DE9F04704460F469046C1
:102EC0001E46DDF82090002529466D1C22685754C7
:102ED00029466D1C226802F80180320A29466D1CC1
:102EE00023685A5429466D1C23685E544FEA192200
:102EF00029466D1C23685A5429466D1C236803F823
:102F0000019029462068FFF7BBFF824629466D1CC9
:102F1000236803F801A04FEA1A2229466D1C236892
:102F20005A54A580BDE8F0872DE9F0411F48FDF710
:102F300015FC012838D11D48047A457A232C2FDC52
:102F40001A2C2DDB032D25D1C088801E174908318E
:102F50000A5C1648C088401E085C42EA00261348F6
:102F6000C088811E11480830FFF78AFF0746B74224
:102F70000FD10E48017BC07A41EA002000B20C4913
:102F800008800A48817C407C41EA002000B209495F
:102F9000088000BF0548FDF724FCE0B2BDE8F081E1
:102FA0000248FDF71EFC00BF0020F7E72C000020C0
:102FB000260000202800002000BFFEE77047000028
:102FC00018B5034600222548006800F0F00050BB09
:102FD00022481C30006800F0805020B12048006872
:102FE00000F4C05118E000BF1C481C30006840F0DD
:102FF00080501A4C1C3420602046006800F080503D
:10300000009000BF00BF1648006800F4C051204681
:10301000006820F080502060B1F5C05F03D1B3F5A7
:10302000404F00D1012200BF012A05D10D480068A0
:1030300040F004000B4C20600A48006820F00100BA
:103040001043084C206000BF2046006800F00100DB
:10305000904201D0012018BD0020FCE70838024052
:1030600000700040003C0240704710B5FEF7C8FAFF
:10307000FFF727F810BD000000B593B0342106A873
:10308000FDF7A4F8142101A8FDF7A0F81548006881
:1030900020F4C05040F400601249086002200690FD
:1030A0000120099010200A9002200F900021109119
:1030B00011914105129106A8FEF700FD08B1FDF738
:1030C0009FFB0F20019003200290002003900490AA
:1030D0000590012101A8FEF76BFB08B1FDF790FBFD
:1030E00013B000BD00700040704770B505466C6AB3
:1030F0000020E085E0842046FEF7E8FF70BD00BFB9
:1031000000BF02680C3252E8002F22F4907102686E
:103110000C3242E80013002BF3D100BF00BF00BF08
:103120000268143252E8002F22F0010102681432C2
:1031300042E80013002BF3D100BF016B01290ED12F
:1031400000BF00BF02680C3252E8002F22F01001CD
:1031500002680C3242E80013002BF3D100BF20219B
:1031600080F8421000210163704710B504462068C2
:10317000C06820F040002168C860202084F8410029
:103180002046FFF766FA002010BDF8B5044694F813
:103190004200222875D1A068B0F5805F0CD120696B
:1031A00050B90025A66A20684068C0F30800308046
:1031B000A06A801CA06215E0A56A0026A068B0F590
:1031C000805F03D0A06828B9206918B920684068DA
:1031D000287004E02068406800F07F002870A06A32
:1031E000401CA062E08D401E80B2E085002846D1E0
:1031F0002068C06820F020002168C8602068C0688E
:1032000020F480702168C8602068406920F00100C7
:1032100021684861202084F8420000206063206B10
:10322000012826D10020206300BF00BF21680C3197
:1032300051E8001F21F0100021680C3141E8000224
:10324000002AF3D100BF2068006800F010001028A9
:103250000AD100BF0020009020680068009020681C
:103260004068009000BF00BFA18D2046FEF72DFFF3
:1032700002E02046FFF778F90020F8BD01E00020C9
:10328000FBE70220F9E7000070B5044621680969F0
:1032900021F44051E2681143226811612269A1685A
:1032A000114362691143E26941EA02052168C96874
:1032B00049F20C62914329432268D160216849692F
:1032C00021F44071A269114322685161594A216871
:1032D000914202D1FEF792FB01E0FEF77FFBE1692C
:1032E000B1F5004F53D100EBC00101EB0011626852
:1032F0005200B1FBF2F16422B1FBF2F10A0100EBE2
:10330000C00101EB001163685B00B1FBF3F100EB5E
:10331000C00303EB001366687600B3FBF6F3642684
:10332000B3FBF6F303EBC30606EB0313A1EB830138
:10333000322303EBC1016423B1FBF3F101F0F80187
:1033400002EB410200EBC00101EB001163685B007E
:10335000B1FBF3F100EBC00303EB001366687600EA
:10336000B3FBF6F36426B3FBF6F303EBC30606EBFD
:103370000313A1EB8301322303EBC1016423B1FBEF
:10338000F3F101F0070111442268916051E000EB74
:10339000C00101EB001162689200B1FBF2F100EB99
:1033A000C00202EB001263689B00B2FBF3F26423DD
:1033B000B2FBF3F202EBC20303EB0212A1EB8201B8
:1033C000322202EB01116422B1FBF2F101F0F001B3
:1033D00000EBC00202EB001263689B00B2FBF3F249
:1033E0006423B2FBF3F201EB021200EBC00101EB2C
:1033F000001163689B00B1FBF3F100EBC00303EB2A
:1034000000136668B600B3FBF6F36426B3FBF6F36D
:1034100003EBC30606EB0313A1EB8301322303EB9B
:1034200001116423B1FBF3F101F00F011144226893
:10343000916070BD0038014010B5034699629A85CD
:10344000DA8500205864222083F84200186928B1E8
:103450001868C06840F480701C68E06018684069B3
:1034600040F001001C6860611868C06840F02000EE
:103470001C68E060002010BD014691F84100212841
:1034800028D18868B0F5805F0BD1086948B90A6A0D
:103490001088C0F308000B685860086A801C086236
:1034A00005E00B6A581C086218780B685860C88CD5
:1034B000401E80B2C88458B90868C06820F08000F7
:1034C0000B68D8600868C06840F040000B68D8609E
:1034D000002070470220FCE72DE9F04104460D462C
:1034E00017469846069E34E0701C88B32EB1FDF74F
:1034F0001BFDA0EB0800B0422BD900BF00BF216824
:103500000C3151E8001F21F4D07021680C3141E8E2
:103510000002002AF3D100BF00BF00BF21681431B0
:1035200051E8001F21F001002168143141E8000238
:10353000002AF3D100BF202084F8410084F8420023
:1035400000BF002084F8400000BF0320BDE8F081E8
:10355000FFE7206800682840A84201D1012000E070
:103560000020B842C0D00020F0E7000010B50248AB
:10357000FEF7AEFD10BD00001401002010B502489A
:10358000FEF7A6FD10BD00005C01002000BFFEE7B5
:103590000FB4084B10B504A902AA039800F038F83C
:1035A000044602A9002000F0DDF8204610BC5DF8BA
:1035B00014FB00006537000802480068C0F30220D1
:1035C000704700000CED00E010B5002804DB0A078E
:1035D000130E054A135406E00A07140E034A00F0BE
:1035E0000F031B1FD45410BD00E400E018ED00E0F1
:1035F00002E008C8121F08C1002AFAD170477047BC
:10360000002001E001C1121F002AFBD17047000019
:103610002DE9FF4F89B09B460446002506E025288A
:103620000BD05A460B999047641C6D1C20780028DB
:10363000F5D10DB02846BDE8F08F0027B84601222D
:10364000474900E0074314F8013F203B02FA03F02A
:103650000842F7D120782E2819D114F8010F47F02D
:1036600004072A280ED06FF02F022078A0F1300135
:1036700009290CD808EB880102EB410100EB010895
:10368000641CF2E70A98641C50F8048B0A902078B6
:103690000028CED0642808D0692806D075281ED00E
:1036A0005A460B9990476D1C58E00A994FF00A0949
:1036B00001C90A91002802DA40422D2102E03905B1
:1036C00004D52B218DF82010012103E0F90704D047
:1036D0002021F7E78A4608AE0DE00021FAE70A99B3
:1036E0004FF00A0901C90A91F7E74946FCF734FF90
:1036F000303106F8011D0028F7D1ADEB060000F1CE
:103700002009780701D44FF00108C84502DDA8EB75
:10371000090000E000208046002706E008A85A467D
:10372000C05D0B9990476D1C7F1C5745F6DB04E08C
:1037300030205A460B9990476D1CB8F10001A8F152
:103740000108F5DC05E016F8010B5A460B99904785
:103750006D1CB9F10001A9F10109F4DC641C65E7F5
:10376000092801000A68531C0B60107070470000A4
:103770002DE9FE4F4FF00008C146C246C346C5487A
:103780000068401CC3490860C3480089C249C98811
:10379000C14A9288CDE900210290BF48438802883F
:1037A000BEA1C848FFF7F4FEC648FCF71AFD80B278
:1037B0004FF47A730246C3490290C348FEF7F0FE05
:1037C0004FF47A730122C1A1BF48FEF7E9FEB24867
:1037D000408AB149098AB04AD289CDE900210290D4
:1037E000AD4883894289BAA1B648FFF7D1FEB548F2
:1037F000FCF7F7FC80B24FF47A730246B1490290AD
:10380000B148FEF7CDFE4FF47A730222BAA1AE485A
:10381000FEF7C6FE4FF47A730222B7A1AA48FEF75C
:10382000BFFEB6480189C088B44A9288CDE900201D
:103830000291B24843880288B1A1A248FFF7A8FECE
:10384000A048FCF7CEFC80B24FF47A7302469D4943
:1038500002909D48FEF7A4FE4FF47A730222A6A1BF
:103860009948FEF79DFEA548418A008AA34AD2895D
:10387000CDE900200291A14883894289AAA19148FB
:10388000FFF786FE8F48FCF7ACFC80B24FF47A73EA
:1038900002468C4902908C48FEF782FE4FF47A7300
:1038A000022295A18848FEF77BFE4FF47A7302222C
:1038B00091A18548FEF774FE00240025002600270C
:1038C000002023E0744931F8101000290BDD724903
:1038D00031F810100FFA81F9711CCEB26E4931F82F
:1038E000101021448CB2854931F8101000290BDDED
:1038F000824931F810100FFA81FB791CCFB27F4951
:1039000031F8101029448DB2411CC8B20A28D9DB05
:10391000002E02DD94FBF6F084B2002F02DD95FB51
:10392000F7F085B2002047E0002E20DD5A4931F83B
:10393000101000291BDD584931F81010611A09B226
:10394000834A22F81010544931F81010414504DD23
:10395000514931F810100FFA81F84F4931F8101021
:10396000494504DA4C4931F810100FFA81F9002F5B
:1039700020DD624931F8101000291BDD5F4931F864
:103980001010691A09B2734A22F810105B4931F815
:103990001010514504DD594931F810100FFA81FA21
:1039A000564931F81010594504DA544931F81010CD
:1039B0000FFA81FB411CC8B20A28B5DB2B46224610
:1039C00065A14048FFF7E4FD3E48FCF70AFC80B2E1
:1039D0004FF47A7302463B4902903B48FEF7E0FD04
:1039E0004FF47A73022244A13748FEF7D9FDAAEBBF
:1039F0000B03A8EB090261A13248FFF7C9FD31486A
:103A0000FCF7EFFB80B24FF47A7302462D49029027
:103A10002D48FEF7C5FD4FF47A73022236A12A48DD
:103A2000FEF7BEFD5D48B0F900305D48B0F90020FA
:103A30005CA12448FFF7ACFD2248FCF7D2FB80B222
:103A40004FF47A7302461F4902901F48FEF7A8FD03
:103A50004FF47A73022228A11B48FEF7A1FD0D48FE
:103A600058A102681748FFF793FD1648FCF7B9FB09
:103A700080B24FF47A730246124902901248FEF760
:103A80008FFD4FF47A7302221BA10F48FEF788FDC9
:103A9000BDE8FE8F54000020A401002054313A25D7
:103AA00064207C2054323A2564207C2054333A250B
:103AB00064207C2054343A2564207C2054353A25F7
:103AC00064000000F40100205C0100200D000000F3
:103AD00054363A2564207C2054373A2564207C20D3
:103AE00054383A2564207C2054393A2564207C20BF
:103AF0005431303A256400000D0A0000B80100205E
:103B000048313A2564207C2048323A2564207C20C4
:103B100048333A2564207C2048343A2564207C20B0
:103B200048353A256420000048363A2564207C2038
:103B300048373A2564207C2048383A2564207C2088
:103B400048393A2564207C204831303A25642000E9
:103B5000CC010020E0010020417665726167655F5D
:103B600054656D3A2564202020202020417665721E
:103B70006167655F48756D693A256400546D6178C9
:103B80002D546D696E3A2564202020202020486D38
:103B900061782D486D696E3A256400001C00002094
:103BA0001A0000204D61737465725F54656D3A258B
:103BB0006420202020202048756D695F54656D3A8F
:103BC000256400002D2D2D2D2D2D2D2D2D2D2D2D50
:103BD0002D2D2D2D2D2D2D2D2D2D2D25642D2D2DE6
:103BE0002D2D2D2D2D2D2D2D2D2D2D2D2D2D2D2D05
:103BF0002D2D2D2D2D00000086B0FDF70DFDFFF7BA
:103C00003BFAFFF78DF8FFF7E3F8FFF71BF9FFF733
:103C1000FDF8FFF74DF87A48FCF7E6FF79490122F5
:103C20000868091DFEF78AFC00224FF4805176488F
:103C3000FDF774F9E3E0FDF777F974490968884204
:103C400002D2002071490860FDF76EF96F490968DA
:103C5000401A6F490968884213D9FFF789FD6D48FA
:103C60000088000A6C4908706A4800784870002093
:103C70006A4908706A4800784870FDF755F9634949
:103C80000860FDF751F967490968884202D20020AF
:103C900064490860FDF748F962490968401A6428D8
:103CA00041D95F4A5B496048FEF7D4FC5948008817
:103CB0005E490988084400B256490880584800887F
:103CC0005B490988084400B25549088004A802905D
:103CD00004200223032200905648017802A8FFF72F
:103CE000EAF8012202215448FDF718F9BDF80C202A
:103CF0004FF47A7351480299FEF752FC00220221D8
:103D00004D48FDF70BF94B480078401C49490870B5
:103D100008460078232801DD1A200870FDF704F911
:103D20004049086000BFFFF7FFF8454908700846A2
:103D300000781A380A2860D2DFE800F0050E172054
:103D400029323B444D563F4800883F4908803F4850
:103D500000883F49088051E03A4800883A49488045
:103D60003A4800883A49488048E036480088364951
:103D7000888036480088364988803FE0314800888E
:103D80003149C880314800883149C88036E02D4823
:103D900000882D4908812D4800882D4908812DE093
:103DA00028480088284948812848008828494881AF
:103DB00024E0244800882449888124480088244934
:103DC00088811BE01F4800881F49C8811F48008860
:103DD0001F49C88112E01B4800881B4908821B4804
:103DE00000881B49088209E0164800881649488265
:103DF000164800881649488200E000BF00BF1AE755
:103E00006C0000202C000020000402401400002060
:103E1000100000201A0000202200002024000020B2
:103E20001C0000204C000020C00000201E000020CC
:103E3000200000205000002000000240140100205B
:103E40004800002026000020A401002028000020B7
:103E5000B8010020030406080C10182030000000F0
:103E6000000000000001020304060708090000002A
:103E70000001020304000000983E0008000000203A
:103E80006C000000F0350008043F00086C000020C2
:103E9000BC05000000360008000000000000000023
:103EA0000000000000000000B80B0000000000004F
:103EB0000000000000000000000000000000000002
:103EC00000000000140100200000000000000000BD
:103ED00000000000000000000000000000000000E2
:103EE00000000000000000001A00000000000000B8
:103EF00000000000000000001000000001000000B1
:043F000068FF1F0037
:0400000508000125C9
:00000001FF
